{"abi":[{"type":"constructor","inputs":[{"name":"_marketImpl","type":"address","internalType":"address"},{"name":"_ammImpl","type":"address","internalType":"address"},{"name":"_resolver","type":"address","internalType":"address"},{"name":"_collateralToken","type":"address","internalType":"address"},{"name":"_protocolFeeBps","type":"uint256","internalType":"uint256"},{"name":"_feeRecipient","type":"address","internalType":"address"},{"name":"_owner","type":"address","internalType":"address"}],"stateMutability":"nonpayable"},{"type":"function","name":"MAX_FEE_BPS","inputs":[],"outputs":[{"name":"","type":"uint256","internalType":"uint256"}],"stateMutability":"view"},{"type":"function","name":"ammImpl","inputs":[],"outputs":[{"name":"","type":"address","internalType":"address"}],"stateMutability":"view"},{"type":"function","name":"collateralToken","inputs":[],"outputs":[{"name":"","type":"address","internalType":"address"}],"stateMutability":"view"},{"type":"function","name":"createMarket","inputs":[{"name":"question","type":"string","internalType":"string"},{"name":"outcomeNames","type":"string[]","internalType":"string[]"},{"name":"endTime","type":"uint256","internalType":"uint256"},{"name":"initialLiquidity","type":"uint256","internalType":"uint256"}],"outputs":[{"name":"market","type":"address","internalType":"address"},{"name":"amm","type":"address","internalType":"address"}],"stateMutability":"nonpayable"},{"type":"function","name":"feeRecipient","inputs":[],"outputs":[{"name":"","type":"address","internalType":"address"}],"stateMutability":"view"},{"type":"function","name":"getMarkets","inputs":[{"name":"start","type":"uint256","internalType":"uint256"},{"name":"count","type":"uint256","internalType":"uint256"}],"outputs":[{"name":"","type":"address[]","internalType":"address[]"}],"stateMutability":"view"},{"type":"function","name":"isMarket","inputs":[{"name":"","type":"address","internalType":"address"}],"outputs":[{"name":"","type":"bool","internalType":"bool"}],"stateMutability":"view"},{"type":"function","name":"marketCount","inputs":[],"outputs":[{"name":"","type":"uint256","internalType":"uint256"}],"stateMutability":"view"},{"type":"function","name":"marketImpl","inputs":[],"outputs":[{"name":"","type":"address","internalType":"address"}],"stateMutability":"view"},{"type":"function","name":"markets","inputs":[{"name":"","type":"uint256","internalType":"uint256"}],"outputs":[{"name":"","type":"address","internalType":"address"}],"stateMutability":"view"},{"type":"function","name":"owner","inputs":[],"outputs":[{"name":"","type":"address","internalType":"address"}],"stateMutability":"view"},{"type":"function","name":"pauseMarket","inputs":[{"name":"market","type":"address","internalType":"address"}],"outputs":[],"stateMutability":"nonpayable"},{"type":"function","name":"protocolFeeBps","inputs":[],"outputs":[{"name":"","type":"uint256","internalType":"uint256"}],"stateMutability":"view"},{"type":"function","name":"renounceOwnership","inputs":[],"outputs":[],"stateMutability":"nonpayable"},{"type":"function","name":"resolver","inputs":[],"outputs":[{"name":"","type":"address","internalType":"address"}],"stateMutability":"view"},{"type":"function","name":"setFeeRecipient","inputs":[{"name":"_feeRecipient","type":"address","internalType":"address"}],"outputs":[],"stateMutability":"nonpayable"},{"type":"function","name":"setProtocolFee","inputs":[{"name":"_protocolFeeBps","type":"uint256","internalType":"uint256"}],"outputs":[],"stateMutability":"nonpayable"},{"type":"function","name":"transferOwnership","inputs":[{"name":"newOwner","type":"address","internalType":"address"}],"outputs":[],"stateMutability":"nonpayable"},{"type":"function","name":"unpauseMarket","inputs":[{"name":"market","type":"address","internalType":"address"}],"outputs":[],"stateMutability":"nonpayable"},{"type":"event","name":"MarketCreated","inputs":[{"name":"market","type":"address","indexed":true,"internalType":"address"},{"name":"amm","type":"address","indexed":true,"internalType":"address"},{"name":"question","type":"string","indexed":false,"internalType":"string"},{"name":"endTime","type":"uint256","indexed":false,"internalType":"uint256"},{"name":"numOutcomes","type":"uint8","indexed":false,"internalType":"uint8"}],"anonymous":false},{"type":"event","name":"OwnershipTransferred","inputs":[{"name":"previousOwner","type":"address","indexed":true,"internalType":"address"},{"name":"newOwner","type":"address","indexed":true,"internalType":"address"}],"anonymous":false},{"type":"event","name":"ProtocolFeeUpdated","inputs":[{"name":"newFeeBps","type":"uint256","indexed":false,"internalType":"uint256"}],"anonymous":false},{"type":"error","name":"AddressEmptyCode","inputs":[{"name":"target","type":"address","internalType":"address"}]},{"type":"error","name":"AddressInsufficientBalance","inputs":[{"name":"account","type":"address","internalType":"address"}]},{"type":"error","name":"ERC1167FailedCreateClone","inputs":[]},{"type":"error","name":"EndTimeInPast","inputs":[]},{"type":"error","name":"FailedInnerCall","inputs":[]},{"type":"error","name":"FeeTooHigh","inputs":[]},{"type":"error","name":"InvalidOutcomeCount","inputs":[]},{"type":"error","name":"OwnableInvalidOwner","inputs":[{"name":"owner","type":"address","internalType":"address"}]},{"type":"error","name":"OwnableUnauthorizedAccount","inputs":[{"name":"account","type":"address","internalType":"address"}]},{"type":"error","name":"SafeERC20FailedOperation","inputs":[{"name":"token","type":"address","internalType":"address"}]},{"type":"error","name":"ZeroAddress","inputs":[]}],"bytecode":{"object":"0x61010060405234801562000011575f80fd5b506040516200156f3803806200156f833981016040819052620000349162000204565b806001600160a01b0381166200006357604051631e4fbdf760e01b81525f600482015260240160405180910390fd5b6200006e8162000199565b506001600160a01b038716620000975760405163d92e233d60e01b815260040160405180910390fd5b6001600160a01b038616620000bf5760405163d92e233d60e01b815260040160405180910390fd5b6001600160a01b038516620000e75760405163d92e233d60e01b815260040160405180910390fd5b6001600160a01b0384166200010f5760405163d92e233d60e01b815260040160405180910390fd5b6001600160a01b038216620001375760405163d92e233d60e01b815260040160405180910390fd5b6103e88311156200015b5760405163cd4e616760e01b815260040160405180910390fd5b506001600160a01b0395861660805293851660a05291841660c052831660e052600155600280546001600160a01b031916919092161790556200028b565b5f80546001600160a01b038381166001600160a01b0319831681178455604051919092169283917f8be0079c531659141344cd1fd0a4f28419497f9722a3daafe3b4186f6b6457e09190a35050565b80516001600160a01b0381168114620001ff575f80fd5b919050565b5f805f805f805f60e0888a0312156200021b575f80fd5b6200022688620001e8565b96506200023660208901620001e8565b95506200024660408901620001e8565b94506200025660608901620001e8565b9350608088015192506200026d60a08901620001e8565b91506200027d60c08901620001e8565b905092959891949750929550565b60805160a05160c05160e05161127f620002f05f395f81816102b901528181610413015281816104970152818161057e01526105cc01525f818161012501526103f101525f818161026c01526103a401525f81816101690152610379015261127f5ff3fe608060405234801561000f575f80fd5b506004361061011c575f3560e01c80638da5cb5b116100a9578063d55be8c61161006e578063d55be8c6146102db578063e74b981b146102e4578063e952cba9146102f7578063ec9790821461030a578063f2fde38b14610312575f80fd5b80638da5cb5b146102575780638eaea188146102675780639980517e1461028e578063b1283e77146102a1578063b2016bd4146102b4575f80fd5b80636ec934da116100ef5780636ec934da146101b55780636f3c61c9146101e7578063715018a61461021a578063787dce3d1461022457806380968d4814610237575f80fd5b806304f3bcec1461012057806334eaeeb91461016457806335659fb81461018b57806346904840146101a2575b5f80fd5b6101477f000000000000000000000000000000000000000000000000000000000000000081565b6040516001600160a01b0390911681526020015b60405180910390f35b6101477f000000000000000000000000000000000000000000000000000000000000000081565b61019460015481565b60405190815260200161015b565b600254610147906001600160a01b031681565b6101d76101c3366004610e8a565b60046020525f908152604090205460ff1681565b604051901515815260200161015b565b6101fa6101f5366004610eed565b610325565b604080516001600160a01b0393841681529290911660208301520161015b565b610222610705565b005b610222610232366004610f8d565b610718565b61024a610245366004610fa4565b61077e565b60405161015b9190610fc4565b5f546001600160a01b0316610147565b6101477f000000000000000000000000000000000000000000000000000000000000000081565b61022261029c366004610e8a565b61086d565b6101476102af366004610f8d565b6109b0565b6101477f000000000000000000000000000000000000000000000000000000000000000081565b6101946103e881565b6102226102f2366004610e8a565b6109d8565b610222610305366004610e8a565b610a29565b600354610194565b610222610320366004610e8a565b610b52565b5f8060028510806103365750600885115b156103545760405163162cc9e360e11b815260040160405180910390fd5b428411610374576040516372e54d4d60e01b815260040160405180910390fd5b61039d7f0000000000000000000000000000000000000000000000000000000000000000610b94565b91506103c87f0000000000000000000000000000000000000000000000000000000000000000610b94565b604051635ae4dde960e11b81529091506001600160a01b0383169063b5c9bbd2906104479030907f0000000000000000000000000000000000000000000000000000000000000000907f0000000000000000000000000000000000000000000000000000000000000000908e908e908e908e908e908c90600401611038565b5f604051808303815f87803b15801561045e575f80fd5b505af1158015610470573d5f803e3d5ffd5b5050600154600254604051632f880c2560e21b81526001600160a01b0387811660048301527f00000000000000000000000000000000000000000000000000000000000000008116602483015260448201939093529082166064820152908416925063be20309491506084015f604051808303815f87803b1580156104f3575f80fd5b505af1158015610505573d5f803e3d5ffd5b50506003805460018082019092557fc2575a0e9e593c00f959f8c92f12db2869c3395a3b0502d05e2516446f71f85b0180546001600160a01b0319166001600160a01b0387169081179091555f908152600460205260409020805460ff19169091179055505082156106a6576105a66001600160a01b037f000000000000000000000000000000000000000000000000000000000000000016333086610c03565b60405163095ea7b360e01b81526001600160a01b038281166004830152602482018590527f0000000000000000000000000000000000000000000000000000000000000000169063095ea7b3906044016020604051808303815f875af1158015610612573d5f803e3d5ffd5b505050506040513d601f19601f820116820180604052508101906106369190611125565b506040516256688760e81b8152336004820152602481018490526001600160a01b038216906356688700906044016020604051808303815f875af1158015610680573d5f803e3d5ffd5b505050506040513d601f19601f820116820180604052508101906106a49190611144565b505b806001600160a01b0316826001600160a01b03167fca1429621216d9907e925c1d74340e74e41f59e6b11c0ff2f4a4c79d02c9d7f58a8a888b8b90506040516106f2949392919061115b565b60405180910390a3965096945050505050565b61070d610c63565b6107165f610c8f565b565b610720610c63565b6103e88111156107435760405163cd4e616760e01b815260040160405180910390fd5b60018190556040518181527fd10d75876659a287a59a6ccfa2e3fff42f84d94b542837acd30bc184d562de409060200160405180910390a150565b60605f61078b838561119c565b60035490915081111561079d57506003545b5f6107a885836111af565b67ffffffffffffffff8111156107c0576107c06111c2565b6040519080825280602002602001820160405280156107e9578160200160208202803683370190505b509050845b828110156108625760038181548110610809576108096111d6565b5f918252602090912001546001600160a01b03168261082888846111af565b81518110610838576108386111d6565b6001600160a01b03909216602092830291909101909101528061085a816111ea565b9150506107ee565b509150505b92915050565b610875610c63565b6001600160a01b0381165f9081526004602052604090205460ff166108ad5760405163d92e233d60e01b815260040160405180910390fd5b806001600160a01b0316633f4ba83a6040518163ffffffff1660e01b81526004015f604051808303815f87803b1580156108e5575f80fd5b505af11580156108f7573d5f803e3d5ffd5b505050505f816001600160a01b0316632a9439456040518163ffffffff1660e01b8152600401602060405180830381865afa158015610938573d5f803e3d5ffd5b505050506040513d601f19601f8201168201806040525081019061095c9190611202565b9050806001600160a01b0316633f4ba83a6040518163ffffffff1660e01b81526004015f604051808303815f87803b158015610996575f80fd5b505af11580156109a8573d5f803e3d5ffd5b505050505050565b600381815481106109bf575f80fd5b5f918252602090912001546001600160a01b0316905081565b6109e0610c63565b6001600160a01b038116610a075760405163d92e233d60e01b815260040160405180910390fd5b600280546001600160a01b0319166001600160a01b0392909216919091179055565b610a31610c63565b6001600160a01b0381165f9081526004602052604090205460ff16610a695760405163d92e233d60e01b815260040160405180910390fd5b806001600160a01b0316638456cb596040518163ffffffff1660e01b81526004015f604051808303815f87803b158015610aa1575f80fd5b505af1158015610ab3573d5f803e3d5ffd5b505050505f816001600160a01b0316632a9439456040518163ffffffff1660e01b8152600401602060405180830381865afa158015610af4573d5f803e3d5ffd5b505050506040513d601f19601f82011682018060405250810190610b189190611202565b9050806001600160a01b0316638456cb596040518163ffffffff1660e01b81526004015f604051808303815f87803b158015610996575f80fd5b610b5a610c63565b6001600160a01b038116610b8857604051631e4fbdf760e01b81525f60048201526024015b60405180910390fd5b610b9181610c8f565b50565b5f763d602d80600a3d3981f3363d3d373d3d3d363d730000008260601b60e81c175f526e5af43d82803e903d91602b57fd5bf38260781b17602052603760095ff090506001600160a01b038116610bfe576040516330be1a3d60e21b815260040160405180910390fd5b919050565b604080516001600160a01b0385811660248301528416604482015260648082018490528251808303909101815260849091019091526020810180516001600160e01b03166323b872dd60e01b179052610c5d908590610cde565b50505050565b5f546001600160a01b031633146107165760405163118cdaa760e01b8152336004820152602401610b7f565b5f80546001600160a01b038381166001600160a01b0319831681178455604051919092169283917f8be0079c531659141344cd1fd0a4f28419497f9722a3daafe3b4186f6b6457e09190a35050565b5f610cf26001600160a01b03841683610d44565b905080515f14158015610d16575080806020019051810190610d149190611125565b155b15610d3f57604051635274afe760e01b81526001600160a01b0384166004820152602401610b7f565b505050565b6060610d5183835f610d58565b9392505050565b606081471015610d7d5760405163cd78605960e01b8152306004820152602401610b7f565b5f80856001600160a01b03168486604051610d98919061121d565b5f6040518083038185875af1925050503d805f8114610dd2576040519150601f19603f3d011682016040523d82523d5f602084013e610dd7565b606091505b5091509150610de7868383610df1565b9695505050505050565b606082610e0657610e0182610e4d565b610d51565b8151158015610e1d57506001600160a01b0384163b155b15610e4657604051639996b31560e01b81526001600160a01b0385166004820152602401610b7f565b5080610d51565b805115610e5d5780518082602001fd5b604051630a12f52160e11b815260040160405180910390fd5b6001600160a01b0381168114610b91575f80fd5b5f60208284031215610e9a575f80fd5b8135610d5181610e76565b5f8083601f840112610eb5575f80fd5b50813567ffffffffffffffff811115610ecc575f80fd5b6020830191508360208260051b8501011115610ee6575f80fd5b9250929050565b5f805f805f8060808789031215610f02575f80fd5b863567ffffffffffffffff80821115610f19575f80fd5b818901915089601f830112610f2c575f80fd5b813581811115610f3a575f80fd5b8a6020828501011115610f4b575f80fd5b602092830198509650908801359080821115610f65575f80fd5b50610f7289828a01610ea5565b979a9699509760408101359660609091013595509350505050565b5f60208284031215610f9d575f80fd5b5035919050565b5f8060408385031215610fb5575f80fd5b50508035926020909101359150565b602080825282518282018190525f9190848201906040850190845b818110156110045783516001600160a01b031683529284019291840191600101610fdf565b50909695505050505050565b81835281816020850137505f828201602090810191909152601f909101601f19169091010190565b5f60018060a01b03808c1683526020818c1681850152818b16604085015260e0606085015261106b60e085018a8c611010565b84810360808601528781529150808201600588901b83018201895f5b8a8110156110f457858303601f190184528135368d9003601e190181126110ac575f80fd5b8c01858101903567ffffffffffffffff8111156110c7575f80fd5b8036038213156110d5575f80fd5b6110e0858284611010565b958701959450505090840190600101611087565b505060a086018890526001600160a01b03871660c0870152935061111792505050565b9a9950505050505050505050565b5f60208284031215611135575f80fd5b81518015158114610d51575f80fd5b5f60208284031215611154575f80fd5b5051919050565b606081525f61116e606083018688611010565b905083602083015260ff8316604083015295945050505050565b634e487b7160e01b5f52601160045260245ffd5b8082018082111561086757610867611188565b8181038181111561086757610867611188565b634e487b7160e01b5f52604160045260245ffd5b634e487b7160e01b5f52603260045260245ffd5b5f600182016111fb576111fb611188565b5060010190565b5f60208284031215611212575f80fd5b8151610d5181610e76565b5f82515f5b8181101561123c5760208186018101518583015201611222565b505f92019182525091905056fea2646970667358221220660ac625a2e4ae2180abb25af6f40fe4d09168d90e121c4bb4b05f6c447998f164736f6c63430008140033","linkReferences":{}},"methodIdentifiers":{"MAX_FEE_BPS()":"d55be8c6","ammImpl()":"8eaea188","collateralToken()":"b2016bd4","createMarket(string,string[],uint256,uint256)":"6f3c61c9","feeRecipient()":"46904840","getMarkets(uint256,uint256)":"80968d48","isMarket(address)":"6ec934da","marketCount()":"ec979082","marketImpl()":"34eaeeb9","markets(uint256)":"b1283e77","owner()":"8da5cb5b","pauseMarket(address)":"e952cba9","protocolFeeBps()":"35659fb8","renounceOwnership()":"715018a6","resolver()":"04f3bcec","setFeeRecipient(address)":"e74b981b","setProtocolFee(uint256)":"787dce3d","transferOwnership(address)":"f2fde38b","unpauseMarket(address)":"9980517e"},"id":35}