{"abi":[{"type":"function","name":"amm","inputs":[],"outputs":[{"name":"","type":"address","internalType":"address"}],"stateMutability":"view"},{"type":"function","name":"claimWinnings","inputs":[],"outputs":[{"name":"payout","type":"uint256","internalType":"uint256"}],"stateMutability":"nonpayable"},{"type":"function","name":"collateralToken","inputs":[],"outputs":[{"name":"","type":"address","internalType":"contract IERC20"}],"stateMutability":"view"},{"type":"function","name":"endTime","inputs":[],"outputs":[{"name":"","type":"uint256","internalType":"uint256"}],"stateMutability":"view"},{"type":"function","name":"factory","inputs":[],"outputs":[{"name":"","type":"address","internalType":"address"}],"stateMutability":"view"},{"type":"function","name":"getOutcomeName","inputs":[{"name":"index","type":"uint256","internalType":"uint256"}],"outputs":[{"name":"","type":"string","internalType":"string"}],"stateMutability":"view"},{"type":"function","name":"getOutcomeToken","inputs":[{"name":"index","type":"uint256","internalType":"uint256"}],"outputs":[{"name":"","type":"address","internalType":"address"}],"stateMutability":"view"},{"type":"function","name":"initialize","inputs":[{"name":"_factory","type":"address","internalType":"address"},{"name":"_resolver","type":"address","internalType":"address"},{"name":"_collateralToken","type":"address","internalType":"address"},{"name":"_question","type":"string","internalType":"string"},{"name":"_outcomeNames","type":"string[]","internalType":"string[]"},{"name":"_endTime","type":"uint256","internalType":"uint256"},{"name":"_amm","type":"address","internalType":"address"}],"outputs":[],"stateMutability":"nonpayable"},{"type":"function","name":"invalid","inputs":[],"outputs":[{"name":"","type":"bool","internalType":"bool"}],"stateMutability":"view"},{"type":"function","name":"mintCompleteSets","inputs":[{"name":"to","type":"address","internalType":"address"},{"name":"amount","type":"uint256","internalType":"uint256"}],"outputs":[],"stateMutability":"nonpayable"},{"type":"function","name":"numOutcomes","inputs":[],"outputs":[{"name":"","type":"uint256","internalType":"uint256"}],"stateMutability":"view"},{"type":"function","name":"pause","inputs":[],"outputs":[],"stateMutability":"nonpayable"},{"type":"function","name":"paused","inputs":[],"outputs":[{"name":"","type":"bool","internalType":"bool"}],"stateMutability":"view"},{"type":"function","name":"question","inputs":[],"outputs":[{"name":"","type":"string","internalType":"string"}],"stateMutability":"view"},{"type":"function","name":"redeemCompleteSets","inputs":[{"name":"amount","type":"uint256","internalType":"uint256"}],"outputs":[],"stateMutability":"nonpayable"},{"type":"function","name":"resolve","inputs":[{"name":"_winningOutcome","type":"uint256","internalType":"uint256"},{"name":"_invalid","type":"bool","internalType":"bool"}],"outputs":[],"stateMutability":"nonpayable"},{"type":"function","name":"resolved","inputs":[],"outputs":[{"name":"","type":"bool","internalType":"bool"}],"stateMutability":"view"},{"type":"function","name":"resolver","inputs":[],"outputs":[{"name":"","type":"address","internalType":"address"}],"stateMutability":"view"},{"type":"function","name":"unpause","inputs":[],"outputs":[],"stateMutability":"nonpayable"},{"type":"function","name":"winningOutcome","inputs":[],"outputs":[{"name":"","type":"uint256","internalType":"uint256"}],"stateMutability":"view"},{"type":"event","name":"CompleteSetsIssued","inputs":[{"name":"to","type":"address","indexed":true,"internalType":"address"},{"name":"amount","type":"uint256","indexed":false,"internalType":"uint256"}],"anonymous":false},{"type":"event","name":"CompleteSetsRedeemed","inputs":[{"name":"from","type":"address","indexed":true,"internalType":"address"},{"name":"amount","type":"uint256","indexed":false,"internalType":"uint256"}],"anonymous":false},{"type":"event","name":"MarketResolved","inputs":[{"name":"winningOutcome","type":"uint256","indexed":false,"internalType":"uint256"},{"name":"invalid","type":"bool","indexed":false,"internalType":"bool"}],"anonymous":false},{"type":"event","name":"Paused","inputs":[{"name":"account","type":"address","indexed":false,"internalType":"address"}],"anonymous":false},{"type":"event","name":"Unpaused","inputs":[{"name":"account","type":"address","indexed":false,"internalType":"address"}],"anonymous":false},{"type":"event","name":"WinningsClaimed","inputs":[{"name":"user","type":"address","indexed":true,"internalType":"address"},{"name":"outcome","type":"uint256","indexed":false,"internalType":"uint256"},{"name":"amount","type":"uint256","indexed":false,"internalType":"uint256"}],"anonymous":false},{"type":"error","name":"AddressEmptyCode","inputs":[{"name":"target","type":"address","internalType":"address"}]},{"type":"error","name":"AddressInsufficientBalance","inputs":[{"name":"account","type":"address","internalType":"address"}]},{"type":"error","name":"AlreadyInitialized","inputs":[]},{"type":"error","name":"EndTimeInPast","inputs":[]},{"type":"error","name":"EnforcedPause","inputs":[]},{"type":"error","name":"ExpectedPause","inputs":[]},{"type":"error","name":"FailedInnerCall","inputs":[]},{"type":"error","name":"InvalidOutcome","inputs":[]},{"type":"error","name":"InvalidOutcomeCount","inputs":[]},{"type":"error","name":"MarketAlreadyResolved","inputs":[]},{"type":"error","name":"MarketNotEnded","inputs":[]},{"type":"error","name":"MarketNotResolved","inputs":[]},{"type":"error","name":"NothingToClaim","inputs":[]},{"type":"error","name":"OnlyFactory","inputs":[]},{"type":"error","name":"OnlyResolver","inputs":[]},{"type":"error","name":"ReentrancyGuardReentrantCall","inputs":[]},{"type":"error","name":"SafeERC20FailedOperation","inputs":[{"name":"token","type":"address","internalType":"address"}]}],"bytecode":{"object":"0x608060405234801561000f575f80fd5b5060015f819055805460ff191690556123d88061002b5f395ff3fe608060405234801562000010575f80fd5b506004361062000140575f3560e01c80638e39f6fd11620000b7578063b5c9bbd21162000077578063b5c9bbd21462000272578063bde9e40e1462000289578063c45a01551462000297578063de5005cd14620002b0578063f319d42814620002c7575f80fd5b80638e39f6fd146200021c5780639b34ae031462000233578063aa248303146200023d578063b2016bd41462000254578063b401faf11462000268575f80fd5b80633fad9ae011620001035780633fad9ae014620001cd57806352a34b0514620001e65780635c975abb14620001fd5780638456cb5914620002095780638767d64e1462000213575f80fd5b806304f3bcec14620001445780632a94394514620001755780633197cbb614620001895780633f4ba83a14620001a25780633f6fa65514620001ae575b5f80fd5b60025462000158906001600160a01b031681565b6040516001600160a01b0390911681526020015b60405180910390f35b60045462000158906001600160a01b031681565b6200019360065481565b6040519081526020016200016c565b620001ac620002de565b005b600954620001bc9060ff1681565b60405190151581526020016200016c565b620001d76200031b565b6040516200016c919062001261565b620001ac620001f736600462001283565b620003af565b60015460ff16620001bc565b620001ac620004b4565b60075462000193565b620001586200022d366004620012b4565b620004ef565b62000193600a5481565b620001ac6200024e366004620012b4565b62000520565b60035462000158906001600160a01b031681565b6200019362000634565b620001ac6200028336600462001333565b6200094d565b600b54620001bc9060ff1681565b600154620001589061010090046001600160a01b031681565b620001d7620002c1366004620012b4565b62000ba8565b620001ac620002d836600462001420565b62000c5e565b60015461010090046001600160a01b031633146200030f57604051630636a15760e11b815260040160405180910390fd5b6200031962000d85565b565b600580546200032a906200144b565b80601f016020809104026020016040519081016040528092919081815260200182805462000358906200144b565b8015620003a75780601f106200037d57610100808354040283529160200191620003a7565b820191905f5260205f20905b8154815290600101906020018083116200038957829003601f168201915b505050505081565b6002546001600160a01b03163314620003db57604051632b910d6d60e11b815260040160405180910390fd5b600654421015620003ff576040516302d56b1d60e21b815260040160405180910390fd5b60095460ff1615620004245760405163aa43cb2d60e01b815260040160405180910390fd5b801580156200043557506007548210155b15620004545760405163c74a206d60e01b815260040160405180910390fd5b6009805460ff19908116600117909155600b8054831515921682179055600a8390556040805184815260208101929092527f4927fe38919783250023d27e65a3e56b6b5c3e49364e51674a41ef08d62460d9910160405180910390a15050565b60015461010090046001600160a01b03163314620004e557604051630636a15760e11b815260040160405180910390fd5b6200031962000dd9565b5f6007828154811062000506576200050662001485565b5f918252602090912001546001600160a01b031692915050565b6200052a62000e17565b6200053462000e40565b6007545f5b81811015620005d7576007818154811062000558576200055862001485565b5f91825260209091200154604051632770a7eb60e21b8152336004820152602481018590526001600160a01b0390911690639dc29fac906044015f604051808303815f87803b158015620005aa575f80fd5b505af1158015620005bd573d5f803e3d5ffd5b505050508080620005ce90620014ad565b91505062000539565b50600354620005f1906001600160a01b0316338462000e65565b60405182815233907f43d1f3dc96206ef57e5f34c331a34e583df803728c0dba2f4e9e4f3ab6fdf6f29060200160405180910390a2506200063160015f55565b50565b5f6200063f62000e17565b60095460ff16620006635760405163174b639360e11b815260040160405180910390fd5b600754600b5460ff1615620007cd575f805b82811015620007b7575f6007828154811062000695576200069562001485565b5f918252602090912001546040516370a0823160e01b81523360048201526001600160a01b03909116906370a0823190602401602060405180830381865afa158015620006e4573d5f803e3d5ffd5b505050506040513d601f19601f820116820180604052508101906200070a9190620014c8565b90508015620007a1576200071f8184620014e0565b92506007828154811062000737576200073762001485565b5f91825260209091200154604051632770a7eb60e21b8152336004820152602481018390526001600160a01b0390911690639dc29fac906044015f604051808303815f87803b15801562000789575f80fd5b505af11580156200079c573d5f803e3d5ffd5b505050505b5080620007ae81620014ad565b91505062000675565b50620007c482826200150a565b925050620008c7565b5f6007600a5481548110620007e657620007e662001485565b5f918252602090912001546040516370a0823160e01b81523360048201526001600160a01b03909116915081906370a0823190602401602060405180830381865afa15801562000838573d5f803e3d5ffd5b505050506040513d601f19601f820116820180604052508101906200085e9190620014c8565b92508215620008c557604051632770a7eb60e21b8152336004820152602481018490526001600160a01b03821690639dc29fac906044015f604051808303815f87803b158015620008ad575f80fd5b505af1158015620008c0573d5f803e3d5ffd5b505050505b505b815f03620008e8576040516312d37ee560e31b815260040160405180910390fd5b60035462000901906001600160a01b0316338462000e65565b600a54604080519182526020820184905233917f7472e24de4628e34b41a2aa1688ed4b46a9145b2de1cf93d74902473ccc1740d910160405180910390a2506200094a60015f55565b90565b60015461010090046001600160a01b0316156200097c5760405162dc149f60e41b815260040160405180910390fd5b60028310806200098c5750600883115b15620009ab5760405163162cc9e360e11b815260040160405180910390fd5b428211620009cc576040516372e54d4d60e01b815260040160405180910390fd5b600180546001600160a01b03808c1661010002610100600160a81b031990921691909117909155600280548a83166001600160a01b03199182161790915560038054928a1692909116919091179055600562000a2a86888362001585565b506006829055600480546001600160a01b0319166001600160a01b0383161790555f5b8381101562000b9c57600885858381811062000a6d5762000a6d62001485565b905060200281019062000a8191906200164e565b82546001810184555f93845260209093209092019162000aa2918362001585565b50600785858381811062000aba5762000aba62001485565b905060200281019062000ace91906200164e565b60405160200162000ae192919062001694565b60405160208183030381529060405262000afb8362000ecb565b60405160200162000b0d9190620016b8565b604051602081830303815290604052308460405162000b2c9062001202565b62000b3b9493929190620016e5565b604051809103905ff08015801562000b55573d5f803e3d5ffd5b5081546001810183555f928352602090922090910180546001600160a01b0319166001600160a01b039092169190911790558062000b9381620014ad565b91505062000a4d565b50505050505050505050565b60606008828154811062000bc05762000bc062001485565b905f5260205f2001805462000bd5906200144b565b80601f016020809104026020016040519081016040528092919081815260200182805462000c03906200144b565b801562000c525780601f1062000c285761010080835404028352916020019162000c52565b820191905f5260205f20905b81548152906001019060200180831162000c3457829003601f168201915b50505050509050919050565b62000c6862000e17565b62000c7262000e40565b60035462000c8c906001600160a01b031633308462000fe8565b6007545f5b8181101562000d31576007818154811062000cb05762000cb062001485565b5f918252602090912001546040516340c10f1960e01b81526001600160a01b03868116600483015260248201869052909116906340c10f19906044015f604051808303815f87803b15801562000d04575f80fd5b505af115801562000d17573d5f803e3d5ffd5b50505050808062000d2890620014ad565b91505062000c91565b50826001600160a01b03167f8e5bf42258431a8fa6555d26e43c6f9b87b55f2561eff3493a44faa03761e7ed8360405162000d6e91815260200190565b60405180910390a25062000d8160015f55565b5050565b62000d8f62001029565b6001805460ff191690557f5db9ee0a495bf2e6ff9c91a7834c1ba4fdd244a5e8aa4e537bd38aeae4b073aa335b6040516001600160a01b03909116815260200160405180910390a1565b62000de362000e40565b6001805460ff1916811790557f62e78cea01bee320cd4e420270b5ea74000d11b0c9f74754ebdbfc544b05a2583362000dbc565b60025f540362000e3a57604051633ee5aeb560e01b815260040160405180910390fd5b60025f55565b60015460ff1615620003195760405163d93c066560e01b815260040160405180910390fd5b6040516001600160a01b0383811660248301526044820183905262000ec691859182169063a9059cbb906064015b604051602081830303815290604052915060e01b6020820180516001600160e01b0383818316178352505050506200104d565b505050565b6060815f0362000ef25750506040805180820190915260018152600360fc1b602082015290565b815f5b811562000f21578062000f0881620014ad565b915062000f199050600a836200150a565b915062000ef5565b5f8167ffffffffffffffff81111562000f3e5762000f3e62001520565b6040519080825280601f01601f19166020018201604052801562000f69576020820181803683370190505b5090505b841562000fe05762000f816001836200172a565b915062000f90600a8662001740565b62000f9d906030620014e0565b60f81b81838151811062000fb55762000fb562001485565b60200101906001600160f81b03191690815f1a90535062000fd8600a866200150a565b945062000f6d565b949350505050565b6040516001600160a01b038481166024830152838116604483015260648201839052620010239186918216906323b872dd9060840162000e93565b50505050565b60015460ff166200031957604051638dfc202b60e01b815260040160405180910390fd5b5f620010636001600160a01b03841683620010b9565b905080515f141580156200108a57508080602001905181019062001088919062001756565b155b1562000ec657604051635274afe760e01b81526001600160a01b03841660048201526024015b60405180910390fd5b6060620010c883835f620010d1565b90505b92915050565b606081471015620010f85760405163cd78605960e01b8152306004820152602401620010b0565b5f80856001600160a01b0316848660405162001115919062001774565b5f6040518083038185875af1925050503d805f811462001151576040519150601f19603f3d011682016040523d82523d5f602084013e62001156565b606091505b50915091506200116886838362001174565b925050505b9392505050565b6060826200118d576200118782620011d8565b6200116d565b8151158015620011a557506001600160a01b0384163b155b15620011d057604051639996b31560e01b81526001600160a01b0385166004820152602401620010b0565b50806200116d565b805115620011e95780518082602001fd5b604051630a12f52160e11b815260040160405180910390fd5b610c11806200179283390190565b5f5b838110156200122c57818101518382015260200162001212565b50505f910152565b5f81518084526200124d81602086016020860162001210565b601f01601f19169290920160200192915050565b602081525f620010c8602083018462001234565b801515811462000631575f80fd5b5f806040838503121562001295575f80fd5b823591506020830135620012a98162001275565b809150509250929050565b5f60208284031215620012c5575f80fd5b5035919050565b80356001600160a01b0381168114620012e3575f80fd5b919050565b5f8083601f840112620012f9575f80fd5b50813567ffffffffffffffff81111562001311575f80fd5b6020830191508360208260051b85010111156200132c575f80fd5b9250929050565b5f805f805f805f805f60e08a8c0312156200134c575f80fd5b620013578a620012cc565b98506200136760208b01620012cc565b97506200137760408b01620012cc565b965060608a013567ffffffffffffffff8082111562001394575f80fd5b818c0191508c601f830112620013a8575f80fd5b813581811115620013b7575f80fd5b8d6020828501011115620013c9575f80fd5b6020830198508097505060808c0135915080821115620013e7575f80fd5b50620013f68c828d01620012e8565b90955093505060a08a013591506200141160c08b01620012cc565b90509295985092959850929598565b5f806040838503121562001432575f80fd5b6200143d83620012cc565b946020939093013593505050565b600181811c908216806200146057607f821691505b6020821081036200147f57634e487b7160e01b5f52602260045260245ffd5b50919050565b634e487b7160e01b5f52603260045260245ffd5b634e487b7160e01b5f52601160045260245ffd5b5f60018201620014c157620014c162001499565b5060010190565b5f60208284031215620014d9575f80fd5b5051919050565b80820180821115620010cb57620010cb62001499565b634e487b7160e01b5f52601260045260245ffd5b5f826200151b576200151b620014f6565b500490565b634e487b7160e01b5f52604160045260245ffd5b601f82111562000ec6575f81815260208120601f850160051c810160208610156200155c5750805b601f850160051c820191505b818110156200157d5782815560010162001568565b505050505050565b67ffffffffffffffff831115620015a057620015a062001520565b620015b883620015b183546200144b565b8362001534565b5f601f841160018114620015ec575f8515620015d45750838201355b5f19600387901b1c1916600186901b17835562001647565b5f83815260209020601f19861690835b828110156200161e5786850135825560209485019460019092019101620015fc565b50868210156200163b575f1960f88860031b161c19848701351681555b505060018560011b0183555b5050505050565b5f808335601e1984360301811262001664575f80fd5b83018035915067ffffffffffffffff8211156200167f575f80fd5b6020019150368190038213156200132c575f80fd5b68027baba31b7b6b29d160bd1b8152818360098301375f9101600901908152919050565b634f55542d60e01b81525f8251620016d881600485016020870162001210565b9190910160040192915050565b608081525f620016f9608083018762001234565b82810360208401526200170d818762001234565b6001600160a01b0395909516604084015250506060015292915050565b81810381811115620010cb57620010cb62001499565b5f82620017515762001751620014f6565b500690565b5f6020828403121562001767575f80fd5b81516200116d8162001275565b5f82516200178781846020870162001210565b919091019291505056fe60c060405234801562000010575f80fd5b5060405162000c1138038062000c1183398101604081905262000033916200012d565b8383600362000043838262000246565b50600462000052828262000246565b5050506001600160a01b0390911660805260a052506200030e9050565b634e487b7160e01b5f52604160045260245ffd5b5f82601f83011262000093575f80fd5b81516001600160401b0380821115620000b057620000b06200006f565b604051601f8301601f19908116603f01168101908282118183101715620000db57620000db6200006f565b81604052838152602092508683858801011115620000f7575f80fd5b5f91505b838210156200011a5785820183015181830184015290820190620000fb565b5f93810190920192909252949350505050565b5f805f806080858703121562000141575f80fd5b84516001600160401b038082111562000158575f80fd5b620001668883890162000083565b955060208701519150808211156200017c575f80fd5b506200018b8782880162000083565b604087015190945090506001600160a01b0381168114620001aa575f80fd5b6060959095015193969295505050565b600181811c90821680620001cf57607f821691505b602082108103620001ee57634e487b7160e01b5f52602260045260245ffd5b50919050565b601f82111562000241575f81815260208120601f850160051c810160208610156200021c5750805b601f850160051c820191505b818110156200023d5782815560010162000228565b5050505b505050565b81516001600160401b038111156200026257620002626200006f565b6200027a81620002738454620001ba565b84620001f4565b602080601f831160018114620002b0575f8415620002985750858301515b5f19600386901b1c1916600185901b1785556200023d565b5f85815260208120601f198616915b82811015620002e057888601518255948401946001909101908401620002bf565b5085821015620002fe57878501515f19600388901b60f8161c191681555b5050505050600190811b01905550565b60805160a0516108d36200033e5f395f61015e01525f81816101ad01528181610324015261038a01526108d35ff3fe608060405234801561000f575f80fd5b50600436106100cb575f3560e01c80634cbe43891161008857806395d89b411161006357806395d89b41146101e75780639dc29fac146101ef578063a9059cbb14610202578063dd62ed3e14610215575f80fd5b80634cbe43891461015957806370a082311461018057806380f55605146101a8575f80fd5b806306fdde03146100cf578063095ea7b3146100ed57806318160ddd1461011057806323b872dd14610122578063313ce5671461013557806340c10f1914610144575b5f80fd5b6100d761024d565b6040516100e4919061072e565b60405180910390f35b6101006100fb366004610794565b6102dd565b60405190151581526020016100e4565b6002545b6040519081526020016100e4565b6101006101303660046107bc565b6102f6565b604051601281526020016100e4565b610157610152366004610794565b610319565b005b6101147f000000000000000000000000000000000000000000000000000000000000000081565b61011461018e3660046107f5565b6001600160a01b03165f9081526020819052604090205490565b6101cf7f000000000000000000000000000000000000000000000000000000000000000081565b6040516001600160a01b0390911681526020016100e4565b6100d7610370565b6101576101fd366004610794565b61037f565b610100610210366004610794565b6103d2565b610114610223366004610815565b6001600160a01b039182165f90815260016020908152604080832093909416825291909152205490565b60606003805461025c90610846565b80601f016020809104026020016040519081016040528092919081815260200182805461028890610846565b80156102d35780601f106102aa576101008083540402835291602001916102d3565b820191905f5260205f20905b8154815290600101906020018083116102b657829003601f168201915b5050505050905090565b5f336102ea8185856103df565b60019150505b92915050565b5f336103038582856103f1565b61030e858585610471565b506001949350505050565b336001600160a01b037f0000000000000000000000000000000000000000000000000000000000000000161461036257604051639e0125a960e01b815260040160405180910390fd5b61036c82826104ce565b5050565b60606004805461025c90610846565b336001600160a01b037f000000000000000000000000000000000000000000000000000000000000000016146103c857604051639e0125a960e01b815260040160405180910390fd5b61036c8282610502565b5f336102ea818585610471565b6103ec8383836001610536565b505050565b6001600160a01b038381165f908152600160209081526040808320938616835292905220545f19811461046b578181101561045d57604051637dc7a0d960e11b81526001600160a01b038416600482015260248101829052604481018390526064015b60405180910390fd5b61046b84848484035f610536565b50505050565b6001600160a01b03831661049a57604051634b637e8f60e11b81525f6004820152602401610454565b6001600160a01b0382166104c35760405163ec442f0560e01b81525f6004820152602401610454565b6103ec838383610608565b6001600160a01b0382166104f75760405163ec442f0560e01b81525f6004820152602401610454565b61036c5f8383610608565b6001600160a01b03821661052b57604051634b637e8f60e11b81525f6004820152602401610454565b61036c825f83610608565b6001600160a01b03841661055f5760405163e602df0560e01b81525f6004820152602401610454565b6001600160a01b03831661058857604051634a1406b160e11b81525f6004820152602401610454565b6001600160a01b038085165f908152600160209081526040808320938716835292905220829055801561046b57826001600160a01b0316846001600160a01b03167f8c5be1e5ebec7d5bd14f71427d1e84f3dd0314c0f7b2291e5b200ac8c7c3b925846040516105fa91815260200190565b60405180910390a350505050565b6001600160a01b038316610632578060025f828254610627919061087e565b909155506106a29050565b6001600160a01b0383165f90815260208190526040902054818110156106845760405163391434e360e21b81526001600160a01b03851660048201526024810182905260448101839052606401610454565b6001600160a01b0384165f9081526020819052604090209082900390555b6001600160a01b0382166106be576002805482900390556106dc565b6001600160a01b0382165f9081526020819052604090208054820190555b816001600160a01b0316836001600160a01b03167fddf252ad1be2c89b69c2b068fc378daa952ba7f163c4a11628f55a4df523b3ef8360405161072191815260200190565b60405180910390a3505050565b5f6020808352835180828501525f5b818110156107595785810183015185820160400152820161073d565b505f604082860101526040601f19601f8301168501019250505092915050565b80356001600160a01b038116811461078f575f80fd5b919050565b5f80604083850312156107a5575f80fd5b6107ae83610779565b946020939093013593505050565b5f805f606084860312156107ce575f80fd5b6107d784610779565b92506107e560208501610779565b9150604084013590509250925092565b5f60208284031215610805575f80fd5b61080e82610779565b9392505050565b5f8060408385031215610826575f80fd5b61082f83610779565b915061083d60208401610779565b90509250929050565b600181811c9082168061085a57607f821691505b60208210810361087857634e487b7160e01b5f52602260045260245ffd5b50919050565b808201808211156102f057634e487b7160e01b5f52601160045260245ffdfea26469706673582212202f48315c6d13be467392438bf16ee25ca8a79ed243f3a27460b99723578dd82564736f6c63430008140033a264697066735822122066be98940653fbbb6e7e980bf64b07a695b2178b07b02f121cdc787956fda60364736f6c63430008140033","linkReferences":{}},"methodIdentifiers":{"amm()":"2a943945","claimWinnings()":"b401faf1","collateralToken()":"b2016bd4","endTime()":"3197cbb6","factory()":"c45a0155","getOutcomeName(uint256)":"de5005cd","getOutcomeToken(uint256)":"8e39f6fd","initialize(address,address,address,string,string[],uint256,address)":"b5c9bbd2","invalid()":"bde9e40e","mintCompleteSets(address,uint256)":"f319d428","numOutcomes()":"8767d64e","pause()":"8456cb59","paused()":"5c975abb","question()":"3fad9ae0","redeemCompleteSets(uint256)":"aa248303","resolve(uint256,bool)":"52a34b05","resolved()":"3f6fa655","resolver()":"04f3bcec","unpause()":"3f4ba83a","winningOutcome()":"9b34ae03"},"id":34}