{"abi":[{"type":"constructor","inputs":[{"name":"_name","type":"string","internalType":"string"},{"name":"_symbol","type":"string","internalType":"string"},{"name":"_market","type":"address","internalType":"address"},{"name":"_outcomeIndex","type":"uint256","internalType":"uint256"}],"stateMutability":"nonpayable"},{"type":"function","name":"allowance","inputs":[{"name":"owner","type":"address","internalType":"address"},{"name":"spender","type":"address","internalType":"address"}],"outputs":[{"name":"","type":"uint256","internalType":"uint256"}],"stateMutability":"view"},{"type":"function","name":"approve","inputs":[{"name":"spender","type":"address","internalType":"address"},{"name":"value","type":"uint256","internalType":"uint256"}],"outputs":[{"name":"","type":"bool","internalType":"bool"}],"stateMutability":"nonpayable"},{"type":"function","name":"balanceOf","inputs":[{"name":"account","type":"address","internalType":"address"}],"outputs":[{"name":"","type":"uint256","internalType":"uint256"}],"stateMutability":"view"},{"type":"function","name":"burn","inputs":[{"name":"from","type":"address","internalType":"address"},{"name":"amount","type":"uint256","internalType":"uint256"}],"outputs":[],"stateMutability":"nonpayable"},{"type":"function","name":"decimals","inputs":[],"outputs":[{"name":"","type":"uint8","internalType":"uint8"}],"stateMutability":"view"},{"type":"function","name":"market","inputs":[],"outputs":[{"name":"","type":"address","internalType":"address"}],"stateMutability":"view"},{"type":"function","name":"mint","inputs":[{"name":"to","type":"address","internalType":"address"},{"name":"amount","type":"uint256","internalType":"uint256"}],"outputs":[],"stateMutability":"nonpayable"},{"type":"function","name":"name","inputs":[],"outputs":[{"name":"","type":"string","internalType":"string"}],"stateMutability":"view"},{"type":"function","name":"outcomeIndex","inputs":[],"outputs":[{"name":"","type":"uint256","internalType":"uint256"}],"stateMutability":"view"},{"type":"function","name":"symbol","inputs":[],"outputs":[{"name":"","type":"string","internalType":"string"}],"stateMutability":"view"},{"type":"function","name":"totalSupply","inputs":[],"outputs":[{"name":"","type":"uint256","internalType":"uint256"}],"stateMutability":"view"},{"type":"function","name":"transfer","inputs":[{"name":"to","type":"address","internalType":"address"},{"name":"value","type":"uint256","internalType":"uint256"}],"outputs":[{"name":"","type":"bool","internalType":"bool"}],"stateMutability":"nonpayable"},{"type":"function","name":"transferFrom","inputs":[{"name":"from","type":"address","internalType":"address"},{"name":"to","type":"address","internalType":"address"},{"name":"value","type":"uint256","internalType":"uint256"}],"outputs":[{"name":"","type":"bool","internalType":"bool"}],"stateMutability":"nonpayable"},{"type":"event","name":"Approval","inputs":[{"name":"owner","type":"address","indexed":true,"internalType":"address"},{"name":"spender","type":"address","indexed":true,"internalType":"address"},{"name":"value","type":"uint256","indexed":false,"internalType":"uint256"}],"anonymous":false},{"type":"event","name":"Transfer","inputs":[{"name":"from","type":"address","indexed":true,"internalType":"address"},{"name":"to","type":"address","indexed":true,"internalType":"address"},{"name":"value","type":"uint256","indexed":false,"internalType":"uint256"}],"anonymous":false},{"type":"error","name":"ERC20InsufficientAllowance","inputs":[{"name":"spender","type":"address","internalType":"address"},{"name":"allowance","type":"uint256","internalType":"uint256"},{"name":"needed","type":"uint256","internalType":"uint256"}]},{"type":"error","name":"ERC20InsufficientBalance","inputs":[{"name":"sender","type":"address","internalType":"address"},{"name":"balance","type":"uint256","internalType":"uint256"},{"name":"needed","type":"uint256","internalType":"uint256"}]},{"type":"error","name":"ERC20InvalidApprover","inputs":[{"name":"approver","type":"address","internalType":"address"}]},{"type":"error","name":"ERC20InvalidReceiver","inputs":[{"name":"receiver","type":"address","internalType":"address"}]},{"type":"error","name":"ERC20InvalidSender","inputs":[{"name":"sender","type":"address","internalType":"address"}]},{"type":"error","name":"ERC20InvalidSpender","inputs":[{"name":"spender","type":"address","internalType":"address"}]},{"type":"error","name":"OnlyMarket","inputs":[]}],"bytecode":{"object":"0x60c060405234801562000010575f80fd5b5060405162000c1138038062000c1183398101604081905262000033916200012d565b8383600362000043838262000246565b50600462000052828262000246565b5050506001600160a01b0390911660805260a052506200030e9050565b634e487b7160e01b5f52604160045260245ffd5b5f82601f83011262000093575f80fd5b81516001600160401b0380821115620000b057620000b06200006f565b604051601f8301601f19908116603f01168101908282118183101715620000db57620000db6200006f565b81604052838152602092508683858801011115620000f7575f80fd5b5f91505b838210156200011a5785820183015181830184015290820190620000fb565b5f93810190920192909252949350505050565b5f805f806080858703121562000141575f80fd5b84516001600160401b038082111562000158575f80fd5b620001668883890162000083565b955060208701519150808211156200017c575f80fd5b506200018b8782880162000083565b604087015190945090506001600160a01b0381168114620001aa575f80fd5b6060959095015193969295505050565b600181811c90821680620001cf57607f821691505b602082108103620001ee57634e487b7160e01b5f52602260045260245ffd5b50919050565b601f82111562000241575f81815260208120601f850160051c810160208610156200021c5750805b601f850160051c820191505b818110156200023d5782815560010162000228565b5050505b505050565b81516001600160401b038111156200026257620002626200006f565b6200027a81620002738454620001ba565b84620001f4565b602080601f831160018114620002b0575f8415620002985750858301515b5f19600386901b1c1916600185901b1785556200023d565b5f85815260208120601f198616915b82811015620002e057888601518255948401946001909101908401620002bf565b5085821015620002fe57878501515f19600388901b60f8161c191681555b5050505050600190811b01905550565b60805160a0516108d36200033e5f395f61015e01525f81816101ad01528181610324015261038a01526108d35ff3fe608060405234801561000f575f80fd5b50600436106100cb575f3560e01c80634cbe43891161008857806395d89b411161006357806395d89b41146101e75780639dc29fac146101ef578063a9059cbb14610202578063dd62ed3e14610215575f80fd5b80634cbe43891461015957806370a082311461018057806380f55605146101a8575f80fd5b806306fdde03146100cf578063095ea7b3146100ed57806318160ddd1461011057806323b872dd14610122578063313ce5671461013557806340c10f1914610144575b5f80fd5b6100d761024d565b6040516100e4919061072e565b60405180910390f35b6101006100fb366004610794565b6102dd565b60405190151581526020016100e4565b6002545b6040519081526020016100e4565b6101006101303660046107bc565b6102f6565b604051601281526020016100e4565b610157610152366004610794565b610319565b005b6101147f000000000000000000000000000000000000000000000000000000000000000081565b61011461018e3660046107f5565b6001600160a01b03165f9081526020819052604090205490565b6101cf7f000000000000000000000000000000000000000000000000000000000000000081565b6040516001600160a01b0390911681526020016100e4565b6100d7610370565b6101576101fd366004610794565b61037f565b610100610210366004610794565b6103d2565b610114610223366004610815565b6001600160a01b039182165f90815260016020908152604080832093909416825291909152205490565b60606003805461025c90610846565b80601f016020809104026020016040519081016040528092919081815260200182805461028890610846565b80156102d35780601f106102aa576101008083540402835291602001916102d3565b820191905f5260205f20905b8154815290600101906020018083116102b657829003601f168201915b5050505050905090565b5f336102ea8185856103df565b60019150505b92915050565b5f336103038582856103f1565b61030e858585610471565b506001949350505050565b336001600160a01b037f0000000000000000000000000000000000000000000000000000000000000000161461036257604051639e0125a960e01b815260040160405180910390fd5b61036c82826104ce565b5050565b60606004805461025c90610846565b336001600160a01b037f000000000000000000000000000000000000000000000000000000000000000016146103c857604051639e0125a960e01b815260040160405180910390fd5b61036c8282610502565b5f336102ea818585610471565b6103ec8383836001610536565b505050565b6001600160a01b038381165f908152600160209081526040808320938616835292905220545f19811461046b578181101561045d57604051637dc7a0d960e11b81526001600160a01b038416600482015260248101829052604481018390526064015b60405180910390fd5b61046b84848484035f610536565b50505050565b6001600160a01b03831661049a57604051634b637e8f60e11b81525f6004820152602401610454565b6001600160a01b0382166104c35760405163ec442f0560e01b81525f6004820152602401610454565b6103ec838383610608565b6001600160a01b0382166104f75760405163ec442f0560e01b81525f6004820152602401610454565b61036c5f8383610608565b6001600160a01b03821661052b57604051634b637e8f60e11b81525f6004820152602401610454565b61036c825f83610608565b6001600160a01b03841661055f5760405163e602df0560e01b81525f6004820152602401610454565b6001600160a01b03831661058857604051634a1406b160e11b81525f6004820152602401610454565b6001600160a01b038085165f908152600160209081526040808320938716835292905220829055801561046b57826001600160a01b0316846001600160a01b03167f8c5be1e5ebec7d5bd14f71427d1e84f3dd0314c0f7b2291e5b200ac8c7c3b925846040516105fa91815260200190565b60405180910390a350505050565b6001600160a01b038316610632578060025f828254610627919061087e565b909155506106a29050565b6001600160a01b0383165f90815260208190526040902054818110156106845760405163391434e360e21b81526001600160a01b03851660048201526024810182905260448101839052606401610454565b6001600160a01b0384165f9081526020819052604090209082900390555b6001600160a01b0382166106be576002805482900390556106dc565b6001600160a01b0382165f9081526020819052604090208054820190555b816001600160a01b0316836001600160a01b03167fddf252ad1be2c89b69c2b068fc378daa952ba7f163c4a11628f55a4df523b3ef8360405161072191815260200190565b60405180910390a3505050565b5f6020808352835180828501525f5b818110156107595785810183015185820160400152820161073d565b505f604082860101526040601f19601f8301168501019250505092915050565b80356001600160a01b038116811461078f575f80fd5b919050565b5f80604083850312156107a5575f80fd5b6107ae83610779565b946020939093013593505050565b5f805f606084860312156107ce575f80fd5b6107d784610779565b92506107e560208501610779565b9150604084013590509250925092565b5f60208284031215610805575f80fd5b61080e82610779565b9392505050565b5f8060408385031215610826575f80fd5b61082f83610779565b915061083d60208401610779565b90509250929050565b600181811c9082168061085a57607f821691505b60208210810361087857634e487b7160e01b5f52602260045260245ffd5b50919050565b808201808211156102f057634e487b7160e01b5f52601160045260245ffdfea26469706673582212202f48315c6d13be467392438bf16ee25ca8a79ed243f3a27460b99723578dd82564736f6c63430008140033","linkReferences":{}},"methodIdentifiers":{"allowance(address,address)":"dd62ed3e","approve(address,uint256)":"095ea7b3","balanceOf(address)":"70a08231","burn(address,uint256)":"9dc29fac","decimals()":"313ce567","market()":"80f55605","mint(address,uint256)":"40c10f19","name()":"06fdde03","outcomeIndex()":"4cbe4389","symbol()":"95d89b41","totalSupply()":"18160ddd","transfer(address,uint256)":"a9059cbb","transferFrom(address,address,uint256)":"23b872dd"},"id":34}