{"abi":[{"type":"constructor","inputs":[],"stateMutability":"nonpayable"},{"type":"function","name":"BPS","inputs":[],"outputs":[{"name":"","type":"uint256","internalType":"uint256"}],"stateMutability":"view"},{"type":"function","name":"MIN_LIQUIDITY","inputs":[],"outputs":[{"name":"","type":"uint256","internalType":"uint256"}],"stateMutability":"view"},{"type":"function","name":"SCALE","inputs":[],"outputs":[{"name":"","type":"uint256","internalType":"uint256"}],"stateMutability":"view"},{"type":"function","name":"addLiquidity","inputs":[{"name":"provider","type":"address","internalType":"address"},{"name":"collateralAmount","type":"uint256","internalType":"uint256"}],"outputs":[{"name":"lpTokens","type":"uint256","internalType":"uint256"}],"stateMutability":"nonpayable"},{"type":"function","name":"allowance","inputs":[{"name":"owner","type":"address","internalType":"address"},{"name":"spender","type":"address","internalType":"address"}],"outputs":[{"name":"","type":"uint256","internalType":"uint256"}],"stateMutability":"view"},{"type":"function","name":"approve","inputs":[{"name":"spender","type":"address","internalType":"address"},{"name":"value","type":"uint256","internalType":"uint256"}],"outputs":[{"name":"","type":"bool","internalType":"bool"}],"stateMutability":"nonpayable"},{"type":"function","name":"balanceOf","inputs":[{"name":"account","type":"address","internalType":"address"}],"outputs":[{"name":"","type":"uint256","internalType":"uint256"}],"stateMutability":"view"},{"type":"function","name":"buy","inputs":[{"name":"outcome","type":"uint256","internalType":"uint256"},{"name":"collateralAmount","type":"uint256","internalType":"uint256"},{"name":"minTokensOut","type":"uint256","internalType":"uint256"}],"outputs":[{"name":"tokensOut","type":"uint256","internalType":"uint256"}],"stateMutability":"nonpayable"},{"type":"function","name":"collateralToken","inputs":[],"outputs":[{"name":"","type":"address","internalType":"contract IERC20"}],"stateMutability":"view"},{"type":"function","name":"decimals","inputs":[],"outputs":[{"name":"","type":"uint8","internalType":"uint8"}],"stateMutability":"view"},{"type":"function","name":"factory","inputs":[],"outputs":[{"name":"","type":"address","internalType":"address"}],"stateMutability":"view"},{"type":"function","name":"feeRecipient","inputs":[],"outputs":[{"name":"","type":"address","internalType":"address"}],"stateMutability":"view"},{"type":"function","name":"getPrice","inputs":[{"name":"outcome","type":"uint256","internalType":"uint256"}],"outputs":[{"name":"price","type":"uint256","internalType":"uint256"}],"stateMutability":"view"},{"type":"function","name":"getReserve","inputs":[{"name":"outcome","type":"uint256","internalType":"uint256"}],"outputs":[{"name":"","type":"uint256","internalType":"uint256"}],"stateMutability":"view"},{"type":"function","name":"initialize","inputs":[{"name":"_market","type":"address","internalType":"address"},{"name":"_collateralToken","type":"address","internalType":"address"},{"name":"_protocolFeeBps","type":"uint256","internalType":"uint256"},{"name":"_feeRecipient","type":"address","internalType":"address"}],"outputs":[],"stateMutability":"nonpayable"},{"type":"function","name":"market","inputs":[],"outputs":[{"name":"","type":"address","internalType":"address"}],"stateMutability":"view"},{"type":"function","name":"name","inputs":[],"outputs":[{"name":"","type":"string","internalType":"string"}],"stateMutability":"view"},{"type":"function","name":"pause","inputs":[],"outputs":[],"stateMutability":"nonpayable"},{"type":"function","name":"paused","inputs":[],"outputs":[{"name":"","type":"bool","internalType":"bool"}],"stateMutability":"view"},{"type":"function","name":"protocolFeeBps","inputs":[],"outputs":[{"name":"","type":"uint256","internalType":"uint256"}],"stateMutability":"view"},{"type":"function","name":"quoteBuy","inputs":[{"name":"outcome","type":"uint256","internalType":"uint256"},{"name":"collateralAmount","type":"uint256","internalType":"uint256"}],"outputs":[{"name":"","type":"uint256","internalType":"uint256"}],"stateMutability":"view"},{"type":"function","name":"quoteSell","inputs":[{"name":"outcome","type":"uint256","internalType":"uint256"},{"name":"tokenAmount","type":"uint256","internalType":"uint256"}],"outputs":[{"name":"","type":"uint256","internalType":"uint256"}],"stateMutability":"view"},{"type":"function","name":"removeLiquidity","inputs":[{"name":"lpTokens","type":"uint256","internalType":"uint256"}],"outputs":[{"name":"collateralOut","type":"uint256","internalType":"uint256"}],"stateMutability":"nonpayable"},{"type":"function","name":"reserves","inputs":[{"name":"","type":"uint256","internalType":"uint256"}],"outputs":[{"name":"","type":"uint256","internalType":"uint256"}],"stateMutability":"view"},{"type":"function","name":"sell","inputs":[{"name":"outcome","type":"uint256","internalType":"uint256"},{"name":"tokenAmount","type":"uint256","internalType":"uint256"},{"name":"minCollateralOut","type":"uint256","internalType":"uint256"}],"outputs":[{"name":"collateralOut","type":"uint256","internalType":"uint256"}],"stateMutability":"nonpayable"},{"type":"function","name":"symbol","inputs":[],"outputs":[{"name":"","type":"string","internalType":"string"}],"stateMutability":"view"},{"type":"function","name":"totalSupply","inputs":[],"outputs":[{"name":"","type":"uint256","internalType":"uint256"}],"stateMutability":"view"},{"type":"function","name":"transfer","inputs":[{"name":"to","type":"address","internalType":"address"},{"name":"value","type":"uint256","internalType":"uint256"}],"outputs":[{"name":"","type":"bool","internalType":"bool"}],"stateMutability":"nonpayable"},{"type":"function","name":"transferFrom","inputs":[{"name":"from","type":"address","internalType":"address"},{"name":"to","type":"address","internalType":"address"},{"name":"value","type":"uint256","internalType":"uint256"}],"outputs":[{"name":"","type":"bool","internalType":"bool"}],"stateMutability":"nonpayable"},{"type":"function","name":"unpause","inputs":[],"outputs":[],"stateMutability":"nonpayable"},{"type":"event","name":"Approval","inputs":[{"name":"owner","type":"address","indexed":true,"internalType":"address"},{"name":"spender","type":"address","indexed":true,"internalType":"address"},{"name":"value","type":"uint256","indexed":false,"internalType":"uint256"}],"anonymous":false},{"type":"event","name":"Buy","inputs":[{"name":"user","type":"address","indexed":true,"internalType":"address"},{"name":"outcome","type":"uint256","indexed":false,"internalType":"uint256"},{"name":"collateralIn","type":"uint256","indexed":false,"internalType":"uint256"},{"name":"tokensOut","type":"uint256","indexed":false,"internalType":"uint256"}],"anonymous":false},{"type":"event","name":"LiquidityAdded","inputs":[{"name":"provider","type":"address","indexed":true,"internalType":"address"},{"name":"collateralAmount","type":"uint256","indexed":false,"internalType":"uint256"},{"name":"lpTokens","type":"uint256","indexed":false,"internalType":"uint256"}],"anonymous":false},{"type":"event","name":"LiquidityRemoved","inputs":[{"name":"provider","type":"address","indexed":true,"internalType":"address"},{"name":"lpTokens","type":"uint256","indexed":false,"internalType":"uint256"},{"name":"collateralAmount","type":"uint256","indexed":false,"internalType":"uint256"}],"anonymous":false},{"type":"event","name":"Paused","inputs":[{"name":"account","type":"address","indexed":false,"internalType":"address"}],"anonymous":false},{"type":"event","name":"Sell","inputs":[{"name":"user","type":"address","indexed":true,"internalType":"address"},{"name":"outcome","type":"uint256","indexed":false,"internalType":"uint256"},{"name":"tokensIn","type":"uint256","indexed":false,"internalType":"uint256"},{"name":"collateralOut","type":"uint256","indexed":false,"internalType":"uint256"}],"anonymous":false},{"type":"event","name":"Transfer","inputs":[{"name":"from","type":"address","indexed":true,"internalType":"address"},{"name":"to","type":"address","indexed":true,"internalType":"address"},{"name":"value","type":"uint256","indexed":false,"internalType":"uint256"}],"anonymous":false},{"type":"event","name":"Unpaused","inputs":[{"name":"account","type":"address","indexed":false,"internalType":"address"}],"anonymous":false},{"type":"error","name":"AddressEmptyCode","inputs":[{"name":"target","type":"address","internalType":"address"}]},{"type":"error","name":"AddressInsufficientBalance","inputs":[{"name":"account","type":"address","internalType":"address"}]},{"type":"error","name":"AlreadyInitialized","inputs":[]},{"type":"error","name":"ERC20InsufficientAllowance","inputs":[{"name":"spender","type":"address","internalType":"address"},{"name":"allowance","type":"uint256","internalType":"uint256"},{"name":"needed","type":"uint256","internalType":"uint256"}]},{"type":"error","name":"ERC20InsufficientBalance","inputs":[{"name":"sender","type":"address","internalType":"address"},{"name":"balance","type":"uint256","internalType":"uint256"},{"name":"needed","type":"uint256","internalType":"uint256"}]},{"type":"error","name":"ERC20InvalidApprover","inputs":[{"name":"approver","type":"address","internalType":"address"}]},{"type":"error","name":"ERC20InvalidReceiver","inputs":[{"name":"receiver","type":"address","internalType":"address"}]},{"type":"error","name":"ERC20InvalidSender","inputs":[{"name":"sender","type":"address","internalType":"address"}]},{"type":"error","name":"ERC20InvalidSpender","inputs":[{"name":"spender","type":"address","internalType":"address"}]},{"type":"error","name":"EnforcedPause","inputs":[]},{"type":"error","name":"ExpectedPause","inputs":[]},{"type":"error","name":"FailedInnerCall","inputs":[]},{"type":"error","name":"InsufficientLPTokens","inputs":[]},{"type":"error","name":"InsufficientLiquidity","inputs":[]},{"type":"error","name":"InvalidOutcome","inputs":[]},{"type":"error","name":"MarketResolved","inputs":[]},{"type":"error","name":"MathOverflowedMulDiv","inputs":[]},{"type":"error","name":"OnlyFactory","inputs":[]},{"type":"error","name":"ReentrancyGuardReentrantCall","inputs":[]},{"type":"error","name":"SafeERC20FailedOperation","inputs":[{"name":"token","type":"address","internalType":"address"}]},{"type":"error","name":"SlippageExceeded","inputs":[]},{"type":"error","name":"ZeroAmount","inputs":[]}],"bytecode":{"object":"0x608060405234801562000010575f80fd5b5060405180604001604052806011815260200170050726564696374696f6e20414d4d204c5607c1b815250604051806040016040528060038152602001620504c560ec1b81525081600390816200006891906200012f565b5060046200007782826200012f565b50506001600555506006805460ff19169055620001f7565b634e487b7160e01b5f52604160045260245ffd5b600181811c90821680620000b857607f821691505b602082108103620000d757634e487b7160e01b5f52602260045260245ffd5b50919050565b601f8211156200012a575f81815260208120601f850160051c81016020861015620001055750805b601f850160051c820191505b81811015620001265782815560010162000111565b5050505b505050565b81516001600160401b038111156200014b576200014b6200008f565b62000163816200015c8454620000a3565b84620000dd565b602080601f83116001811462000199575f8415620001815750858301515b5f19600386901b1c1916600185901b17855562000126565b5f85815260208120601f198616915b82811015620001c957888601518255948401946001909101908401620001a8565b5085821015620001e757878501515f19600388901b60f8161c191681555b5050505050600190811b01905550565b61221380620002055f395ff3fe608060405234801561000f575f80fd5b50600436106101d1575f3560e01c806377778db3116100fe578063b2016bd41161009e578063dd62ed3e1161006e578063dd62ed3e146103c6578063e7572230146103fe578063eced552614610411578063f998a86514610420575f80fd5b8063b2016bd41461037a578063be2030941461038d578063c45a0155146103a0578063d3c9727c146103b3575f80fd5b80638456cb59116100d95780638456cb591461034457806395d89b411461034c5780639c8f9f2314610354578063a9059cbb14610367575f80fd5b806377778db31461030657806380f55605146103195780638334278d14610331575f80fd5b8063313ce567116101745780634690484011610144578063469048401461029557806356688700146102c05780635c975abb146102d357806370a08231146102de575f80fd5b8063313ce5671461026057806335659fb81461026f5780633f4ba83a1461027857806340993b2614610282575f80fd5b806318160ddd116101af57806318160ddd1461023357806321b77d631461023b57806323b872dd14610244578063249d39e914610257575f80fd5b80630277dd67146101d557806306fdde03146101fb578063095ea7b314610210575b5f80fd5b6101e86101e3366004611ece565b610433565b6040519081526020015b60405180910390f35b610203610511565b6040516101f29190611f10565b61022361021e366004611f56565b6105a1565b60405190151581526020016101f2565b6002546101e8565b6101e86103e881565b610223610252366004611f80565b6105b8565b6101e861271081565b604051601281526020016101f2565b6101e860095481565b6102806105dd565b005b6101e8610290366004611fbe565b610612565b600a546102a8906001600160a01b031681565b6040516001600160a01b0390911681526020016101f2565b6101e86102ce366004611f56565b61098f565b60065460ff16610223565b6101e86102ec366004611fe7565b6001600160a01b03165f9081526020819052604090205490565b6101e8610314366004612002565b610cfd565b6006546102a89061010090046001600160a01b031681565b6101e861033f366004612002565b610d21565b610280610d40565b610203610d73565b6101e8610362366004612002565b610d82565b610223610375366004611f56565b610ff7565b6008546102a8906001600160a01b031681565b61028061039b366004612019565b611004565b6007546102a8906001600160a01b031681565b6101e86103c1366004611fbe565b611145565b6101e86103d4366004612069565b6001600160a01b039182165f90815260016020908152604080832093909416825291909152205490565b6101e861040c366004612002565b61150f565b6101e8670de0b6b3a764000081565b6101e861042e366004611ece565b611665565b600b80545f91829084908684811061044d5761044d6120a0565b905f5260205f20015461046091906120c8565b90505f195f5b838110156104ce57868114158015610498575081600b828154811061048d5761048d6120a0565b905f5260205f200154105b156104bc57600b81815481106104b0576104b06120a0565b905f5260205f20015491505b806104c6816120db565b915050610466565b505f6104db8683856116a2565b90505f6104f7600954612710846116a29092919063ffffffff16565b905061050381836120f3565b955050505050505b92915050565b60606003805461052090612106565b80601f016020809104026020016040519081016040528092919081815260200182805461054c90612106565b80156105975780601f1061056e57610100808354040283529160200191610597565b820191905f5260205f20905b81548152906001019060200180831161057a57829003601f168201915b5050505050905090565b5f336105ae818585611761565b5060019392505050565b5f336105c5858285611773565b6105d08585856117f3565b60019150505b9392505050565b6007546001600160a01b0316331461060857604051630636a15760e11b815260040160405180910390fd5b610610611850565b565b5f61061b6118a2565b6106236118cc565b600660019054906101000a90046001600160a01b03166001600160a01b0316633f6fa6556040518163ffffffff1660e01b8152600401602060405180830381865afa158015610674573d5f803e3d5ffd5b505050506040513d601f19601f82011682018060405250810190610698919061213e565b156106b6576040516355e8cb5f60e01b815260040160405180910390fd5b600b5484106106d85760405163c74a206d60e01b815260040160405180910390fd5b825f036106f857604051631f2a200560e01b815260040160405180910390fd5b6009545f9061070b9085906127106116a2565b90505f61071882866120f3565b600854909150610733906001600160a01b03163330886118f0565b811561075657600a54600854610756916001600160a01b03918216911684611957565b60085460065460405163095ea7b360e01b81526001600160a01b03610100909204821660048201526024810184905291169063095ea7b3906044016020604051808303815f875af11580156107ad573d5f803e3d5ffd5b505050506040513d601f19601f820116820180604052508101906107d1919061213e565b50600654604051631e633a8560e31b8152306004820152602481018390526101009091046001600160a01b03169063f319d428906044015f604051808303815f87803b15801561081f575f80fd5b505af1158015610831573d5f803e3d5ffd5b5050505061083f8682611988565b92508383101561086257604051638199f5f360e01b815260040160405180910390fd5b600b545f5b818110156108b8578781146108a65782600b828154811061088a5761088a6120a0565b905f5260205f20015f8282546108a091906120c8565b90915550505b806108b0816120db565b915050610867565b50600654604051638e39f6fd60e01b81526004810189905261093f913391879161010090046001600160a01b031690638e39f6fd90602401602060405180830381865afa15801561090b573d5f803e3d5ffd5b505050506040513d601f19601f8201168201806040525081019061092f919061215d565b6001600160a01b03169190611957565b604080518881526020810188905290810185905233907fbeae048c6d270d9469f86cf6e8fedda3c60ad770f16c24c9fc131c8e9a09101d9060600160405180910390a25050506105d66001600555565b5f6109986118a2565b6109a06118cc565b815f036109c057604051631f2a200560e01b815260040160405180910390fd5b6008546109d8906001600160a01b03163330856118f0565b60085460065460405163095ea7b360e01b81526001600160a01b03610100909204821660048201526024810185905291169063095ea7b3906044016020604051808303815f875af1158015610a2f573d5f803e3d5ffd5b505050506040513d601f19601f82011682018060405250810190610a53919061213e565b50600654604051631e633a8560e31b8152306004820152602481018490526101009091046001600160a01b03169063f319d428906044015f604051808303815f87803b158015610aa1575f80fd5b505af1158015610ab3573d5f803e3d5ffd5b505050505f600660019054906101000a90046001600160a01b03166001600160a01b0316638767d64e6040518163ffffffff1660e01b8152600401602060405180830381865afa158015610b09573d5f803e3d5ffd5b505050506040513d601f19601f82011682018060405250810190610b2d9190612178565b9050610b3860025490565b5f03610bbe576103e8831015610b615760405163bb55fd2760e01b815260040160405180910390fd5b5f5b81811015610b9c5783600b8281548110610b7f57610b7f6120a0565b5f9182526020909120015580610b94816120db565b915050610b63565b50610ba96103e8846120f3565b9150610bb961dead6103e8611ab3565b610ca4565b5f600b5f81548110610bd257610bd26120a0565b5f91825260209091200154905060015b82811015610c3e5781600b8281548110610bfe57610bfe6120a0565b905f5260205f2001541015610c2c57600b8181548110610c2057610c206120a0565b905f5260205f20015491505b80610c36816120db565b915050610be2565b50610c53610c4b60025490565b8590836116a2565b92505f5b82811015610ca15784600b8281548110610c7357610c736120a0565b905f5260205f20015f828254610c8991906120c8565b90915550819050610c99816120db565b915050610c57565b50505b610cae8483611ab3565b60408051848152602081018490526001600160a01b038616917fac1d76749e5447b7b16f5ab61447e1bd502f3bb4807af3b28e620d1700a6ee45910160405180910390a25061050b6001600555565b5f600b8281548110610d1157610d116120a0565b905f5260205f2001549050919050565b600b8181548110610d30575f80fd5b5f91825260209091200154905081565b6007546001600160a01b03163314610d6b57604051630636a15760e11b815260040160405180910390fd5b610610611aeb565b60606004805461052090612106565b5f610d8b6118a2565b815f03610dab57604051631f2a200560e01b815260040160405180910390fd5b335f90815260208190526040902054821115610dda57604051631c9bd97f60e01b815260040160405180910390fd5b5f610df8670de0b6b3a7640000610df060025490565b8591906116a2565b90505f600660019054906101000a90046001600160a01b03166001600160a01b0316638767d64e6040518163ffffffff1660e01b8152600401602060405180830381865afa158015610e4c573d5f803e3d5ffd5b505050506040513d601f19601f82011682018060405250810190610e709190612178565b90505f195f5b82811015610ed8575f610eb785670de0b6b3a7640000600b8581548110610e9f57610e9f6120a0565b905f5260205f2001546116a29092919063ffffffff16565b905082811015610ec5578092505b5080610ed0816120db565b915050610e76565b505f5b82811015610f255781600b8281548110610ef757610ef76120a0565b905f5260205f20015f828254610f0d91906120f3565b90915550819050610f1d816120db565b915050610edb565b50610f303386611b28565b60065460405163aa24830360e01b8152600481018390526101009091046001600160a01b03169063aa248303906024015f604051808303815f87803b158015610f77575f80fd5b505af1158015610f89573d5f803e3d5ffd5b5050600854610fa592506001600160a01b031690503383611957565b6040805186815260208101839052919450849133917f96cd817c6329656790ef8fba7675405193677d39619571282f5e21f3a98cd059910160405180910390a2505050610ff26001600555565b919050565b5f336105ae8185856117f3565b60065461010090046001600160a01b0316156110325760405162dc149f60e41b815260040160405180910390fd5b60068054610100600160a81b0319166101006001600160a01b038781169182029290921790925560078054336001600160a01b0319918216179091556008805482168784161790556009859055600a8054909116918416919091179055604080516343b3eb2760e11b815290515f9291638767d64e9160048083019260209291908290030181865afa1580156110ca573d5f803e3d5ffd5b505050506040513d601f19601f820116820180604052508101906110ee9190612178565b90505f5b8181101561113d57600b80546001810182555f9182527f0175b7a638427703f0dbe7bb9bbf987a2551717b34e79f33b5b1008d1fa01db9015580611135816120db565b9150506110f2565b505050505050565b5f61114e6118a2565b6111566118cc565b600660019054906101000a90046001600160a01b03166001600160a01b0316633f6fa6556040518163ffffffff1660e01b8152600401602060405180830381865afa1580156111a7573d5f803e3d5ffd5b505050506040513d601f19601f820116820180604052508101906111cb919061213e565b156111e9576040516355e8cb5f60e01b815260040160405180910390fd5b600b54841061120b5760405163c74a206d60e01b815260040160405180910390fd5b825f0361122b57604051631f2a200560e01b815260040160405180910390fd5b600654604051638e39f6fd60e01b8152600481018690526112b5913391309187916101009091046001600160a01b031690638e39f6fd90602401602060405180830381865afa158015611280573d5f803e3d5ffd5b505050506040513d601f19601f820116820180604052508101906112a4919061215d565b6001600160a01b03169291906118f0565b600b8054905f908590878481106112ce576112ce6120a0565b905f5260205f2001546112e191906120c8565b90505f195f5b8381101561134f57878114158015611319575081600b828154811061130e5761130e6120a0565b905f5260205f200154105b1561133d57600b8181548110611331576113316120a0565b905f5260205f20015491505b80611347816120db565b9150506112e7565b5061135b8682846116a2565b93505f611377600954612710876116a29092919063ffffffff16565b90508461138482826120f3565b9550868610156113a757604051638199f5f360e01b815260040160405180910390fd5b6113b181856120f3565b600b8a815481106113c4576113c46120a0565b905f5260205f2001819055505f5b85811015611423578981146114115781600b82815481106113f5576113f56120a0565b905f5260205f20015f82825461140b91906120f3565b90915550505b8061141b816120db565b9150506113d2565b5060065460405163aa24830360e01b8152600481018390526101009091046001600160a01b03169063aa248303906024015f604051808303815f87803b15801561146b575f80fd5b505af115801561147d573d5f803e3d5ffd5b505050505f8211156114a657600a546008546114a6916001600160a01b03918216911684611957565b6008546114bd906001600160a01b03163388611957565b604080518a8152602081018a905290810187905233907f846c37eef631e0943682d87352ec117c20008eb7f425c9b85ac011a6d4774cc09060600160405180910390a250505050506105d66001600555565b600b545f9080820361152e576105d66002670de0b6b3a76400006121a3565b5f5b8181101561158657600b818154811061154b5761154b6120a0565b905f5260205f2001545f036115745761156c82670de0b6b3a76400006121a3565b949350505050565b8061157e816120db565b915050611530565b505f805b828110156115f0576115d2670de0b6b3a7640000600b83815481106115b1576115b16120a0565b905f5260205f200154670de0b6b3a76400006116a29092919063ffffffff16565b6115dc90836120c8565b9150806115e8816120db565b91505061158a565b50805f0361160a5761156c82670de0b6b3a76400006121a3565b5f61162a670de0b6b3a7640000600b87815481106115b1576115b16120a0565b905061163f81670de0b6b3a7640000846116a2565b9350670de0b6b3a764000084111561165d57670de0b6b3a764000093505b505050919050565b5f80611680600954612710856116a29092919063ffffffff16565b90505f61168d82856120f3565b90506116998582611988565b95945050505050565b5f838302815f1985870982811083820303915050805f036116d6578382816116cc576116cc61218f565b04925050506105d6565b8084116116f65760405163227bc15360e01b815260040160405180910390fd5b5f848688095f868103871696879004966002600389028118808a02820302808a02820302808a02820302808a02820302808a02820302808a02909103029181900381900460010186841190950394909402919094039290920491909117919091029150509392505050565b61176e8383836001611b5c565b505050565b6001600160a01b038381165f908152600160209081526040808320938616835292905220545f1981146117ed57818110156117df57604051637dc7a0d960e11b81526001600160a01b038416600482015260248101829052604481018390526064015b60405180910390fd5b6117ed84848484035f611b5c565b50505050565b6001600160a01b03831661181c57604051634b637e8f60e11b81525f60048201526024016117d6565b6001600160a01b0382166118455760405163ec442f0560e01b81525f60048201526024016117d6565b61176e838383611c2e565b611858611d54565b6006805460ff191690557f5db9ee0a495bf2e6ff9c91a7834c1ba4fdd244a5e8aa4e537bd38aeae4b073aa335b6040516001600160a01b03909116815260200160405180910390a1565b6002600554036118c557604051633ee5aeb560e01b815260040160405180910390fd5b6002600555565b60065460ff16156106105760405163d93c066560e01b815260040160405180910390fd5b6040516001600160a01b0384811660248301528381166044830152606482018390526117ed9186918216906323b872dd906084015b604051602081830303815290604052915060e01b6020820180516001600160e01b038381831617835250505050611d77565b6040516001600160a01b0383811660248301526044820183905261176e91859182169063a9059cbb90606401611925565b600b545f90815b818110156119d557600b81815481106119aa576119aa6120a0565b905f5260205f2001545f036119c357839250505061050b565b806119cd816120db565b91505061198f565b50670de0b6b3a76400005f5b82811015611a5357858114611a4157611a3e600b8281548110611a0657611a066120a0565b905f5260205f20015486600b8481548110611a2357611a236120a0565b905f5260205f200154611a3691906120c8565b8491906116a2565b91505b80611a4b816120db565b9150506119e1565b505f611a7582670de0b6b3a7640000600b8981548110610e9f57610e9f6120a0565b90508085600b8881548110611a8c57611a8c6120a0565b905f5260205f200154611a9f91906120c8565b611aa991906120f3565b9695505050505050565b6001600160a01b038216611adc5760405163ec442f0560e01b81525f60048201526024016117d6565b611ae75f8383611c2e565b5050565b611af36118cc565b6006805460ff191660011790557f62e78cea01bee320cd4e420270b5ea74000d11b0c9f74754ebdbfc544b05a2586118853390565b6001600160a01b038216611b5157604051634b637e8f60e11b81525f60048201526024016117d6565b611ae7825f83611c2e565b6001600160a01b038416611b855760405163e602df0560e01b81525f60048201526024016117d6565b6001600160a01b038316611bae57604051634a1406b160e11b81525f60048201526024016117d6565b6001600160a01b038085165f90815260016020908152604080832093871683529290522082905580156117ed57826001600160a01b0316846001600160a01b03167f8c5be1e5ebec7d5bd14f71427d1e84f3dd0314c0f7b2291e5b200ac8c7c3b92584604051611c2091815260200190565b60405180910390a350505050565b6001600160a01b038316611c58578060025f828254611c4d91906120c8565b90915550611cc89050565b6001600160a01b0383165f9081526020819052604090205481811015611caa5760405163391434e360e21b81526001600160a01b038516600482015260248101829052604481018390526064016117d6565b6001600160a01b0384165f9081526020819052604090209082900390555b6001600160a01b038216611ce457600280548290039055611d02565b6001600160a01b0382165f9081526020819052604090208054820190555b816001600160a01b0316836001600160a01b03167fddf252ad1be2c89b69c2b068fc378daa952ba7f163c4a11628f55a4df523b3ef83604051611d4791815260200190565b60405180910390a3505050565b60065460ff1661061057604051638dfc202b60e01b815260040160405180910390fd5b5f611d8b6001600160a01b03841683611dd8565b905080515f14158015611daf575080806020019051810190611dad919061213e565b155b1561176e57604051635274afe760e01b81526001600160a01b03841660048201526024016117d6565b60606105d683835f845f80856001600160a01b03168486604051611dfc91906121c2565b5f6040518083038185875af1925050503d805f8114611e36576040519150601f19603f3d011682016040523d82523d5f602084013e611e3b565b606091505b5091509150611aa9868383606082611e5b57611e5682611ea2565b6105d6565b8151158015611e7257506001600160a01b0384163b155b15611e9b57604051639996b31560e01b81526001600160a01b03851660048201526024016117d6565b50806105d6565b805115611eb25780518082602001fd5b604051630a12f52160e11b815260040160405180910390fd5b50565b5f8060408385031215611edf575f80fd5b50508035926020909101359150565b5f5b83811015611f08578181015183820152602001611ef0565b50505f910152565b602081525f8251806020840152611f2e816040850160208701611eee565b601f01601f19169190910160400192915050565b6001600160a01b0381168114611ecb575f80fd5b5f8060408385031215611f67575f80fd5b8235611f7281611f42565b946020939093013593505050565b5f805f60608486031215611f92575f80fd5b8335611f9d81611f42565b92506020840135611fad81611f42565b929592945050506040919091013590565b5f805f60608486031215611fd0575f80fd5b505081359360208301359350604090920135919050565b5f60208284031215611ff7575f80fd5b81356105d681611f42565b5f60208284031215612012575f80fd5b5035919050565b5f805f806080858703121561202c575f80fd5b843561203781611f42565b9350602085013561204781611f42565b925060408501359150606085013561205e81611f42565b939692955090935050565b5f806040838503121561207a575f80fd5b823561208581611f42565b9150602083013561209581611f42565b809150509250929050565b634e487b7160e01b5f52603260045260245ffd5b634e487b7160e01b5f52601160045260245ffd5b8082018082111561050b5761050b6120b4565b5f600182016120ec576120ec6120b4565b5060010190565b8181038181111561050b5761050b6120b4565b600181811c9082168061211a57607f821691505b60208210810361213857634e487b7160e01b5f52602260045260245ffd5b50919050565b5f6020828403121561214e575f80fd5b815180151581146105d6575f80fd5b5f6020828403121561216d575f80fd5b81516105d681611f42565b5f60208284031215612188575f80fd5b5051919050565b634e487b7160e01b5f52601260045260245ffd5b5f826121bd57634e487b7160e01b5f52601260045260245ffd5b500490565b5f82516121d3818460208701611eee565b919091019291505056fea26469706673582212206c2e2b0e38858caa0a186b5a62a5c5c3d9324055529220360979644a701ad9e464736f6c63430008140033","linkReferences":{}},"methodIdentifiers":{"BPS()":"249d39e9","MIN_LIQUIDITY()":"21b77d63","SCALE()":"eced5526","addLiquidity(address,uint256)":"56688700","allowance(address,address)":"dd62ed3e","approve(address,uint256)":"095ea7b3","balanceOf(address)":"70a08231","buy(uint256,uint256,uint256)":"40993b26","collateralToken()":"b2016bd4","decimals()":"313ce567","factory()":"c45a0155","feeRecipient()":"46904840","getPrice(uint256)":"e7572230","getReserve(uint256)":"77778db3","initialize(address,address,uint256,address)":"be203094","market()":"80f55605","name()":"06fdde03","pause()":"8456cb59","paused()":"5c975abb","protocolFeeBps()":"35659fb8","quoteBuy(uint256,uint256)":"f998a865","quoteSell(uint256,uint256)":"0277dd67","removeLiquidity(uint256)":"9c8f9f23","reserves(uint256)":"8334278d","sell(uint256,uint256,uint256)":"d3c9727c","symbol()":"95d89b41","totalSupply()":"18160ddd","transfer(address,uint256)":"a9059cbb","transferFrom(address,address,uint256)":"23b872dd","unpause()":"3f4ba83a"},"id":32}