{"abi":[{"type":"constructor","inputs":[{"name":"_owner","type":"address","internalType":"address"}],"stateMutability":"nonpayable"},{"type":"function","name":"operators","inputs":[{"name":"","type":"address","internalType":"address"}],"outputs":[{"name":"","type":"bool","internalType":"bool"}],"stateMutability":"view"},{"type":"function","name":"owner","inputs":[],"outputs":[{"name":"","type":"address","internalType":"address"}],"stateMutability":"view"},{"type":"function","name":"renounceOwnership","inputs":[],"outputs":[],"stateMutability":"nonpayable"},{"type":"function","name":"resolve","inputs":[{"name":"market","type":"address","internalType":"address"},{"name":"_winningOutcome","type":"uint256","internalType":"uint256"},{"name":"_invalid","type":"bool","internalType":"bool"}],"outputs":[],"stateMutability":"nonpayable"},{"type":"function","name":"resolveBatch","inputs":[{"name":"_markets","type":"address[]","internalType":"address[]"},{"name":"outcomes","type":"uint256[]","internalType":"uint256[]"},{"name":"invalids","type":"bool[]","internalType":"bool[]"}],"outputs":[],"stateMutability":"nonpayable"},{"type":"function","name":"setOperator","inputs":[{"name":"operator","type":"address","internalType":"address"},{"name":"active","type":"bool","internalType":"bool"}],"outputs":[],"stateMutability":"nonpayable"},{"type":"function","name":"transferOwnership","inputs":[{"name":"newOwner","type":"address","internalType":"address"}],"outputs":[],"stateMutability":"nonpayable"},{"type":"event","name":"MarketResolved","inputs":[{"name":"market","type":"address","indexed":true,"internalType":"address"},{"name":"outcome","type":"uint256","indexed":false,"internalType":"uint256"},{"name":"invalid","type":"bool","indexed":false,"internalType":"bool"}],"anonymous":false},{"type":"event","name":"OperatorSet","inputs":[{"name":"operator","type":"address","indexed":true,"internalType":"address"},{"name":"active","type":"bool","indexed":false,"internalType":"bool"}],"anonymous":false},{"type":"event","name":"OwnershipTransferred","inputs":[{"name":"previousOwner","type":"address","indexed":true,"internalType":"address"},{"name":"newOwner","type":"address","indexed":true,"internalType":"address"}],"anonymous":false},{"type":"error","name":"ArrayLengthMismatch","inputs":[]},{"type":"error","name":"NotOperator","inputs":[]},{"type":"error","name":"OwnableInvalidOwner","inputs":[{"name":"owner","type":"address","internalType":"address"}]},{"type":"error","name":"OwnableUnauthorizedAccount","inputs":[{"name":"account","type":"address","internalType":"address"}]},{"type":"error","name":"ZeroAddress","inputs":[]}],"bytecode":{"object":"0x608060405234801561000f575f80fd5b506040516108aa3803806108aa83398101604081905261002e91610110565b806001600160a01b03811661005c57604051631e4fbdf760e01b81525f600482015260240160405180910390fd5b610065816100c1565b506001600160a01b0381165f81815260016020818152604092839020805460ff19168317905591519081527f1a594081ae893ab78e67d9b9e843547318164322d32c65369d78a96172d9dc8f910160405180910390a25061013d565b5f80546001600160a01b038381166001600160a01b0319831681178455604051919092169283917f8be0079c531659141344cd1fd0a4f28419497f9722a3daafe3b4186f6b6457e09190a35050565b5f60208284031215610120575f80fd5b81516001600160a01b0381168114610136575f80fd5b9392505050565b6107608061014a5f395ff3fe608060405234801561000f575f80fd5b506004361061007a575f3560e01c8063715018a611610058578063715018a6146100dd5780638da5cb5b146100e5578063c9392e30146100ff578063f2fde38b14610112575f80fd5b806313e7c9d81461007e578063558a7297146100b55780635859669c146100ca575b5f80fd5b6100a061008c366004610565565b60016020525f908152604090205460ff1681565b60405190151581526020015b60405180910390f35b6100c86100c3366004610594565b610125565b005b6100c86100d836600461060d565b6101b2565b6100c86103a4565b5f546040516001600160a01b0390911681526020016100ac565b6100c861010d3660046106a0565b6103b7565b6100c8610120366004610565565b61048d565b61012d6104cf565b6001600160a01b0382166101545760405163d92e233d60e01b815260040160405180910390fd5b6001600160a01b0382165f81815260016020908152604091829020805460ff191685151590811790915591519182527f1a594081ae893ab78e67d9b9e843547318164322d32c65369d78a96172d9dc8f910160405180910390a25050565b335f9081526001602052604090205460ff166101e157604051631f0853c160e21b815260040160405180910390fd5b84831415806101f05750848114155b1561020e5760405163512509d360e11b815260040160405180910390fd5b5f5b8581101561039b5786868281811061022a5761022a6106d9565b905060200201602081019061023f9190610565565b6001600160a01b03166352a34b0586868481811061025f5761025f6106d9565b90506020020135858585818110610278576102786106d9565b905060200201602081019061028d91906106ed565b6040516001600160e01b031960e085901b1681526004810192909252151560248201526044015f604051808303815f87803b1580156102ca575f80fd5b505af11580156102dc573d5f803e3d5ffd5b505050508686828181106102f2576102f26106d9565b90506020020160208101906103079190610565565b6001600160a01b03167f65edd095d7bee4f05332528a9ba88d8e5326253161e06430530cc5b8163643f2868684818110610343576103436106d9565b9050602002013585858581811061035c5761035c6106d9565b905060200201602081019061037191906106ed565b6040805192835290151560208301520160405180910390a28061039381610706565b915050610210565b50505050505050565b6103ac6104cf565b6103b55f6104fb565b565b335f9081526001602052604090205460ff166103e657604051631f0853c160e21b815260040160405180910390fd5b6040516352a34b0560e01b81526004810183905281151560248201526001600160a01b038416906352a34b05906044015f604051808303815f87803b15801561042d575f80fd5b505af115801561043f573d5f803e3d5ffd5b50506040805185815284151560208201526001600160a01b03871693507f65edd095d7bee4f05332528a9ba88d8e5326253161e06430530cc5b8163643f292500160405180910390a2505050565b6104956104cf565b6001600160a01b0381166104c357604051631e4fbdf760e01b81525f60048201526024015b60405180910390fd5b6104cc816104fb565b50565b5f546001600160a01b031633146103b55760405163118cdaa760e01b81523360048201526024016104ba565b5f80546001600160a01b038381166001600160a01b0319831681178455604051919092169283917f8be0079c531659141344cd1fd0a4f28419497f9722a3daafe3b4186f6b6457e09190a35050565b80356001600160a01b0381168114610560575f80fd5b919050565b5f60208284031215610575575f80fd5b61057e8261054a565b9392505050565b80358015158114610560575f80fd5b5f80604083850312156105a5575f80fd5b6105ae8361054a565b91506105bc60208401610585565b90509250929050565b5f8083601f8401126105d5575f80fd5b50813567ffffffffffffffff8111156105ec575f80fd5b6020830191508360208260051b8501011115610606575f80fd5b9250929050565b5f805f805f8060608789031215610622575f80fd5b863567ffffffffffffffff80821115610639575f80fd5b6106458a838b016105c5565b9098509650602089013591508082111561065d575f80fd5b6106698a838b016105c5565b90965094506040890135915080821115610681575f80fd5b5061068e89828a016105c5565b979a9699509497509295939492505050565b5f805f606084860312156106b2575f80fd5b6106bb8461054a565b9250602084013591506106d060408501610585565b90509250925092565b634e487b7160e01b5f52603260045260245ffd5b5f602082840312156106fd575f80fd5b61057e82610585565b5f6001820161072357634e487b7160e01b5f52601160045260245ffd5b506001019056fea2646970667358221220db6fb8232394061088cdc1446d597edf8fe6966e0717d98b3f969087c735a2e064736f6c63430008140033","linkReferences":{}},"methodIdentifiers":{"operators(address)":"13e7c9d8","owner()":"8da5cb5b","renounceOwnership()":"715018a6","resolve(address,uint256,bool)":"c9392e30","resolveBatch(address[],uint256[],bool[])":"5859669c","setOperator(address,bool)":"558a7297","transferOwnership(address)":"f2fde38b"},"id":35}