{"abi":[{"type":"constructor","inputs":[{"name":"_factory","type":"address","internalType":"address"}],"stateMutability":"nonpayable"},{"type":"function","name":"addLiquidity","inputs":[{"name":"market","type":"address","internalType":"address"},{"name":"collateralAmount","type":"uint256","internalType":"uint256"},{"name":"minLpTokens","type":"uint256","internalType":"uint256"},{"name":"deadline","type":"uint256","internalType":"uint256"}],"outputs":[{"name":"lpTokens","type":"uint256","internalType":"uint256"}],"stateMutability":"nonpayable"},{"type":"function","name":"buy","inputs":[{"name":"market","type":"address","internalType":"address"},{"name":"outcome","type":"uint256","internalType":"uint256"},{"name":"collateralAmount","type":"uint256","internalType":"uint256"},{"name":"minTokensOut","type":"uint256","internalType":"uint256"},{"name":"deadline","type":"uint256","internalType":"uint256"}],"outputs":[{"name":"tokensOut","type":"uint256","internalType":"uint256"}],"stateMutability":"nonpayable"},{"type":"function","name":"claimWinnings","inputs":[{"name":"market","type":"address","internalType":"address"}],"outputs":[{"name":"payout","type":"uint256","internalType":"uint256"}],"stateMutability":"nonpayable"},{"type":"function","name":"collateralToken","inputs":[],"outputs":[{"name":"","type":"address","internalType":"contract IERC20"}],"stateMutability":"view"},{"type":"function","name":"factory","inputs":[],"outputs":[{"name":"","type":"address","internalType":"contract IMarketFactory"}],"stateMutability":"view"},{"type":"function","name":"getPrices","inputs":[{"name":"market","type":"address","internalType":"address"}],"outputs":[{"name":"prices","type":"uint256[]","internalType":"uint256[]"}],"stateMutability":"view"},{"type":"function","name":"getQuotes","inputs":[{"name":"market","type":"address","internalType":"address"},{"name":"outcome","type":"uint256","internalType":"uint256"},{"name":"amount","type":"uint256","internalType":"uint256"}],"outputs":[{"name":"buyQuote","type":"uint256","internalType":"uint256"},{"name":"sellQuote","type":"uint256","internalType":"uint256"}],"stateMutability":"view"},{"type":"function","name":"removeLiquidity","inputs":[{"name":"market","type":"address","internalType":"address"},{"name":"lpTokens","type":"uint256","internalType":"uint256"},{"name":"minCollateralOut","type":"uint256","internalType":"uint256"},{"name":"deadline","type":"uint256","internalType":"uint256"}],"outputs":[{"name":"collateralOut","type":"uint256","internalType":"uint256"}],"stateMutability":"nonpayable"},{"type":"function","name":"sell","inputs":[{"name":"market","type":"address","internalType":"address"},{"name":"outcome","type":"uint256","internalType":"uint256"},{"name":"tokenAmount","type":"uint256","internalType":"uint256"},{"name":"minCollateralOut","type":"uint256","internalType":"uint256"},{"name":"deadline","type":"uint256","internalType":"uint256"}],"outputs":[{"name":"collateralOut","type":"uint256","internalType":"uint256"}],"stateMutability":"nonpayable"},{"type":"error","name":"AddressEmptyCode","inputs":[{"name":"target","type":"address","internalType":"address"}]},{"type":"error","name":"AddressInsufficientBalance","inputs":[{"name":"account","type":"address","internalType":"address"}]},{"type":"error","name":"DeadlineExpired","inputs":[]},{"type":"error","name":"FailedInnerCall","inputs":[]},{"type":"error","name":"InvalidMarket","inputs":[]},{"type":"error","name":"ReentrancyGuardReentrantCall","inputs":[]},{"type":"error","name":"SafeERC20FailedOperation","inputs":[{"name":"token","type":"address","internalType":"address"}]},{"type":"error","name":"SlippageExceeded","inputs":[]},{"type":"error","name":"ZeroAmount","inputs":[]}],"bytecode":{"object":"0x60c060405234801561000f575f80fd5b506040516116ab3803806116ab83398101604081905261002e916100b0565b60015f556001600160a01b038116608081905260408051632c805af560e21b8152905163b2016bd4916004808201926020929091908290030181865afa15801561007a573d5f803e3d5ffd5b505050506040513d601f19601f8201168201806040525081019061009e91906100b0565b6001600160a01b031660a052506100dd565b5f602082840312156100c0575f80fd5b81516001600160a01b03811681146100d6575f80fd5b9392505050565b60805160a05161156061014b5f395f81816101400152818161031401528181610362015281816108d50152818161092301528181610c9c0152610f8d01525f818161017f015281816101fe015281816107bf01528181610ae601528181610d0d0152610fe801526115605ff3fe608060405234801561000f575f80fd5b5060043610610090575f3560e01c806393ca2f8a1161006357806393ca2f8a146101155780639be8cd6114610128578063b2016bd41461013b578063c45a01551461017a578063fa93d8b5146101a1575f80fd5b80631ece366a14610094578063572aae84146100ba57806362c084fa146100da57806372b60c3014610102575b5f80fd5b6100a76100a2366004611359565b6101b4565b6040519081526020015b60405180910390f35b6100cd6100c8366004611391565b610470565b6040516100b191906113ac565b6100ed6100e83660046113ef565b610625565b604080519283526020830191909152016100b1565b6100a7610110366004611421565b610775565b6100a7610123366004611359565b610a9c565b6100a7610136366004611421565b610cc3565b6101627f000000000000000000000000000000000000000000000000000000000000000081565b6040516001600160a01b0390911681526020016100b1565b6101627f000000000000000000000000000000000000000000000000000000000000000081565b6100a76101af366004611391565b610fc0565b5f6101bd6110df565b81804211156101df57604051631ab7da6b60e01b815260040160405180910390fd5b6040516337649a6d60e11b81526001600160a01b0387811660048301527f00000000000000000000000000000000000000000000000000000000000000001690636ec934da90602401602060405180830381865afa158015610243573d5f803e3d5ffd5b505050506040513d601f19601f820116820180604052508101906102679190611461565b61028457604051639db8d5b160e01b815260040160405180910390fd5b845f036102a457604051631f2a200560e01b815260040160405180910390fd5b5f866001600160a01b0316632a9439456040518163ffffffff1660e01b8152600401602060405180830381865afa1580156102e1573d5f803e3d5ffd5b505050506040513d601f19601f820116820180604052508101906103059190611480565b905061033c6001600160a01b037f000000000000000000000000000000000000000000000000000000000000000016333089611107565b60405163095ea7b360e01b81526001600160a01b038281166004830152602482018890527f0000000000000000000000000000000000000000000000000000000000000000169063095ea7b3906044016020604051808303815f875af11580156103a8573d5f803e3d5ffd5b505050506040513d601f19601f820116820180604052508101906103cc9190611461565b506040516256688760e81b8152336004820152602481018790526001600160a01b038216906356688700906044016020604051808303815f875af1158015610416573d5f803e3d5ffd5b505050506040513d601f19601f8201168201806040525081019061043a919061149b565b92508483101561045d57604051638199f5f360e01b815260040160405180910390fd5b505061046860015f55565b949350505050565b60605f826001600160a01b0316638767d64e6040518163ffffffff1660e01b8152600401602060405180830381865afa1580156104af573d5f803e3d5ffd5b505050506040513d601f19601f820116820180604052508101906104d3919061149b565b90505f836001600160a01b0316632a9439456040518163ffffffff1660e01b8152600401602060405180830381865afa158015610512573d5f803e3d5ffd5b505050506040513d601f19601f820116820180604052508101906105369190611480565b90508167ffffffffffffffff811115610551576105516114b2565b60405190808252806020026020018201604052801561057a578160200160208202803683370190505b5092505f5b8281101561061d57604051630e75722360e41b8152600481018290526001600160a01b0383169063e757223090602401602060405180830381865afa1580156105ca573d5f803e3d5ffd5b505050506040513d601f19601f820116820180604052508101906105ee919061149b565b848281518110610600576106006114c6565b602090810291909101015280610615816114da565b91505061057f565b505050919050565b5f805f856001600160a01b0316632a9439456040518163ffffffff1660e01b8152600401602060405180830381865afa158015610664573d5f803e3d5ffd5b505050506040513d601f19601f820116820180604052508101906106889190611480565b60405163f998a86560e01b815260048101879052602481018690529091506001600160a01b0382169063f998a86590604401602060405180830381865afa1580156106d5573d5f803e3d5ffd5b505050506040513d601f19601f820116820180604052508101906106f9919061149b565b604051630277dd6760e01b815260048101879052602481018690529093506001600160a01b03821690630277dd6790604401602060405180830381865afa158015610746573d5f803e3d5ffd5b505050506040513d601f19601f8201168201806040525081019061076a919061149b565b915050935093915050565b5f61077e6110df565b81804211156107a057604051631ab7da6b60e01b815260040160405180910390fd5b6040516337649a6d60e11b81526001600160a01b0388811660048301527f00000000000000000000000000000000000000000000000000000000000000001690636ec934da90602401602060405180830381865afa158015610804573d5f803e3d5ffd5b505050506040513d601f19601f820116820180604052508101906108289190611461565b61084557604051639db8d5b160e01b815260040160405180910390fd5b845f0361086557604051631f2a200560e01b815260040160405180910390fd5b5f876001600160a01b0316632a9439456040518163ffffffff1660e01b8152600401602060405180830381865afa1580156108a2573d5f803e3d5ffd5b505050506040513d601f19601f820116820180604052508101906108c69190611480565b90506108fd6001600160a01b037f000000000000000000000000000000000000000000000000000000000000000016333089611107565b60405163095ea7b360e01b81526001600160a01b038281166004830152602482018890527f0000000000000000000000000000000000000000000000000000000000000000169063095ea7b3906044016020604051808303815f875af1158015610969573d5f803e3d5ffd5b505050506040513d601f19601f8201168201806040525081019061098d9190611461565b5060405163204c9d9360e11b81526004810188905260248101879052604481018690526001600160a01b038216906340993b26906064016020604051808303815f875af11580156109e0573d5f803e3d5ffd5b505050506040513d601f19601f82011682018060405250810190610a04919061149b565b9250610a8833848a6001600160a01b0316638e39f6fd8b6040518263ffffffff1660e01b8152600401610a3991815260200190565b602060405180830381865afa158015610a54573d5f803e3d5ffd5b505050506040513d601f19601f82011682018060405250810190610a789190611480565b6001600160a01b03169190611174565b5050610a9360015f55565b95945050505050565b5f610aa56110df565b8180421115610ac757604051631ab7da6b60e01b815260040160405180910390fd5b6040516337649a6d60e11b81526001600160a01b0387811660048301527f00000000000000000000000000000000000000000000000000000000000000001690636ec934da90602401602060405180830381865afa158015610b2b573d5f803e3d5ffd5b505050506040513d601f19601f82011682018060405250810190610b4f9190611461565b610b6c57604051639db8d5b160e01b815260040160405180910390fd5b845f03610b8c57604051631f2a200560e01b815260040160405180910390fd5b5f866001600160a01b0316632a9439456040518163ffffffff1660e01b8152600401602060405180830381865afa158015610bc9573d5f803e3d5ffd5b505050506040513d601f19601f82011682018060405250810190610bed9190611480565b9050610c046001600160a01b038216333089611107565b604051639c8f9f2360e01b8152600481018790526001600160a01b03821690639c8f9f23906024016020604051808303815f875af1158015610c48573d5f803e3d5ffd5b505050506040513d601f19601f82011682018060405250810190610c6c919061149b565b925084831015610c8f57604051638199f5f360e01b815260040160405180910390fd5b61045d6001600160a01b037f0000000000000000000000000000000000000000000000000000000000000000163385611174565b5f610ccc6110df565b8180421115610cee57604051631ab7da6b60e01b815260040160405180910390fd5b6040516337649a6d60e11b81526001600160a01b0388811660048301527f00000000000000000000000000000000000000000000000000000000000000001690636ec934da90602401602060405180830381865afa158015610d52573d5f803e3d5ffd5b505050506040513d601f19601f82011682018060405250810190610d769190611461565b610d9357604051639db8d5b160e01b815260040160405180910390fd5b845f03610db357604051631f2a200560e01b815260040160405180910390fd5b5f876001600160a01b0316632a9439456040518163ffffffff1660e01b8152600401602060405180830381865afa158015610df0573d5f803e3d5ffd5b505050506040513d601f19601f82011682018060405250810190610e149190611480565b604051638e39f6fd60e01b8152600481018990529091505f906001600160a01b038a1690638e39f6fd90602401602060405180830381865afa158015610e5c573d5f803e3d5ffd5b505050506040513d601f19601f82011682018060405250810190610e809190611480565b9050610e976001600160a01b03821633308a611107565b60405163095ea7b360e01b81526001600160a01b0383811660048301526024820189905282169063095ea7b3906044016020604051808303815f875af1158015610ee3573d5f803e3d5ffd5b505050506040513d601f19601f82011682018060405250810190610f079190611461565b506040516334f25c9f60e21b81526004810189905260248101889052604481018790526001600160a01b0383169063d3c9727c906064016020604051808303815f875af1158015610f5a573d5f803e3d5ffd5b505050506040513d601f19601f82011682018060405250810190610f7e919061149b565b9350610fb46001600160a01b037f0000000000000000000000000000000000000000000000000000000000000000163386611174565b505050610a9360015f55565b5f610fc96110df565b6040516337649a6d60e11b81526001600160a01b0383811660048301527f00000000000000000000000000000000000000000000000000000000000000001690636ec934da90602401602060405180830381865afa15801561102d573d5f803e3d5ffd5b505050506040513d601f19601f820116820180604052508101906110519190611461565b61106e57604051639db8d5b160e01b815260040160405180910390fd5b816001600160a01b031663b401faf16040518163ffffffff1660e01b81526004016020604051808303815f875af11580156110ab573d5f803e3d5ffd5b505050506040513d601f19601f820116820180604052508101906110cf919061149b565b90506110da60015f55565b919050565b60025f540361110157604051633ee5aeb560e01b815260040160405180910390fd5b60025f55565b6040516001600160a01b03848116602483015283811660448301526064820183905261116e9186918216906323b872dd906084015b604051602081830303815290604052915060e01b6020820180516001600160e01b0383818316178352505050506111aa565b50505050565b6040516001600160a01b038381166024830152604482018390526111a591859182169063a9059cbb9060640161113c565b505050565b5f6111be6001600160a01b03841683611210565b905080515f141580156111e25750808060200190518101906111e09190611461565b155b156111a557604051635274afe760e01b81526001600160a01b03841660048201526024015b60405180910390fd5b606061121d83835f611224565b9392505050565b6060814710156112495760405163cd78605960e01b8152306004820152602401611207565b5f80856001600160a01b0316848660405161126491906114fe565b5f6040518083038185875af1925050503d805f811461129e576040519150601f19603f3d011682016040523d82523d5f602084013e6112a3565b606091505b50915091506112b38683836112bd565b9695505050505050565b6060826112d2576112cd82611319565b61121d565b81511580156112e957506001600160a01b0384163b155b1561131257604051639996b31560e01b81526001600160a01b0385166004820152602401611207565b508061121d565b8051156113295780518082602001fd5b604051630a12f52160e11b815260040160405180910390fd5b50565b6001600160a01b0381168114611342575f80fd5b5f805f806080858703121561136c575f80fd5b843561137781611345565b966020860135965060408601359560600135945092505050565b5f602082840312156113a1575f80fd5b813561121d81611345565b602080825282518282018190525f9190848201906040850190845b818110156113e3578351835292840192918401916001016113c7565b50909695505050505050565b5f805f60608486031215611401575f80fd5b833561140c81611345565b95602085013595506040909401359392505050565b5f805f805f60a08688031215611435575f80fd5b853561144081611345565b97602087013597506040870135966060810135965060800135945092505050565b5f60208284031215611471575f80fd5b8151801515811461121d575f80fd5b5f60208284031215611490575f80fd5b815161121d81611345565b5f602082840312156114ab575f80fd5b5051919050565b634e487b7160e01b5f52604160045260245ffd5b634e487b7160e01b5f52603260045260245ffd5b5f600182016114f757634e487b7160e01b5f52601160045260245ffd5b5060010190565b5f82515f5b8181101561151d5760208186018101518583015201611503565b505f92019182525091905056fea2646970667358221220cac8318cc99161eb33c6af0708372c3997d017d21c519fcbe1e55af8a207021d64736f6c63430008140033","linkReferences":{}},"methodIdentifiers":{"addLiquidity(address,uint256,uint256,uint256)":"1ece366a","buy(address,uint256,uint256,uint256,uint256)":"72b60c30","claimWinnings(address)":"fa93d8b5","collateralToken()":"b2016bd4","factory()":"c45a0155","getPrices(address)":"572aae84","getQuotes(address,uint256,uint256)":"62c084fa","removeLiquidity(address,uint256,uint256,uint256)":"93ca2f8a","sell(address,uint256,uint256,uint256,uint256)":"9be8cd61"},"id":33}